:020000040800F2
:10000000480F0020050100083D04000835040008E1
:100010003904000871010008D50D00080000000037
:10002000000000000000000000000000FD050008C6
:10003000D501000800000000C504000811070008F1
:100040001F0100081F0100081F0100081F01000810
:100050001F0100081F010008D9010008090200085B
:100060002102000839020008510200081F0100089F
:100070001F0100081F0100081F0100081F010008E0
:100080001F0100081F0100081F0100081F010008D0
:100090001F0100081F0100081F0100086902000875
:1000A0001F0100081F0100081F0100081F010008B0
:1000B0001F0100081F0100081F0100081F010008A0
:1000C0001F0100081F0100081F0100081F01000890
:1000D0001F010008110B00081B0B0008250B00086E
:1000E000F10100081F0100081F010008DFF810D00F
:1000F00000F02CF800480047ED0F0008AFF3008037
:10010000480F00200648804706480047FEE7FEE704
:10011000FEE7FEE7FEE7FEE7FEE7FEE7FEE7FEE7B7
:1001200015070008ED000008D2B201E000F8012B2D
:10013000491EFBD270470022F6E710B513460A4667
:1001400004461946FFF7F0FF204610BD064C074D48
:1001500006E0E06840F0010394E807009847103497
:10016000AC42F6D3FFF7C6FF80150008A0150008C3
:1001700000BFFEE721B1026842F00102026004E024
:1001800002684FF6FE731A400260704701464868E5
:1001900080B2704710B50022026847F6F0739A43A8
:1001A0000C6A8B6823430C6923434C6923438C6995
:1001B0002343CC6923434C6A23438C6A23431A4369
:1001C0000260CB6843600B6883604B68C36010BDFE
:1001D000416070477047000010B5034800F050F8C8
:1001E00002480068804710BDFFFF0F001800002084
:1001F00010B5034800F044F802480068804710BD7D
:10020000FFFF0F001800002010B5034800F038F879
:1002100002480068804710BDFFFF0F001800002053
:1002200010B5034800F02CF802480068804710BD64
:10023000FFFF0F001800002010B5034800F020F861
:1002400002480068804710BDFFFF0F001800002023
:1002500010B5034800F014F802480068804710BD4C
:10026000FFFF0F001800002010B5034800F008F849
:1002700002480068804710BDFFFF0F0018000020F3
:100280000149086070470000140401402DE9F04165
:10029000024600250026002000230024002791F8B4
:1002A00003C00CF00F0591F803C00CF0100CBCF16A
:1002B000000F03D091F802C04CEA050591F800C088
:1002C000BCF1000F31D0146800202BE04FF0010C7E
:1002D0000CFA00F3B1F800C00CEA03069E4220D1EC
:1002E00083004FF00F0C0CFA03F7BC4305FA03FC34
:1002F0004CEA040491F803C0BCF1280F06D14FF07A
:10030000010C0CFA00FCC2F814C00AE091F803C01A
:10031000BCF1480F05D14FF0010C0CFA00FCC2F8FB
:1003200010C0401C0828D1D31460B1F800C0BCF143
:10033000FF0F34DD546800202EE000F1080C4FF070
:10034000010808FA0CF3B1F800C00CEA03069E425B
:1003500021D183004FF00F0C0CFA03F7BC4305FAD0
:1003600003FC4CEA040491F803C0BCF1280F05D14A
:1003700000F1080C08FA0CF8C2F8148091F803C0D8
:10038000BCF1480F07D100F1080C4FF0010808FA42
:100390000CF8C2F81080401C0828CED35460BDE889
:1003A000F0810000F0B50A4600230024002100255A
:1003B00000F00046B6F1004F02D11D4EF16901E098
:1003C0001B4E7168C0F3034583B200F44016B6F5C6
:1003D000401F08D121F07061154E766826F07066D6
:1003E000134F7E6012E000F48016B6F5801F06D130
:1003F000032606FA05F4A14341F0706106E0460DBC
:10040000360103FA06F6B14341F0706122B1460DA0
:10041000360103FA06F6314300F00046B6F1004F0C
:1004200002D1034EF16101E0014E7160F0BD0000A8
:100430000000014000BFFEE700BFFEE7704700007C
:1004400070B5002100230F22C47804B3154C246832
:1004500004F4E064C4F5E064210AC1F10403CA4075
:10046000447804FA03F184781440214309010E4CC6
:100470000678A155047804F01F050124AC400578E6
:100480006D11AD0005F1E025C5F8004109E00478E3
:1004900004F01F050124AC40044D0678761145F8A0
:1004A000264070BD0CED00E000E400E080E100E0DB
:1004B00002490143024A1160704700000000FA053A
:1004C0000CED00E07047000029B1064A5269024372
:1004D000044B5A6104E0034A52698243014B5A615A
:1004E000704700000010024029B1064AD269024359
:1004F000044BDA6104E0034AD2698243014BDA61BA
:10050000704700000010024029B1064A9269024378
:10051000044B9A6104E0034A92698243014B9A6159
:10052000704700000010024030B500210022002476
:1005300000232D4D6D6805F00C0121B1042905D073
:10054000082923D105E0294D056022E0274D0560EB
:100550001FE0254D6D6805F47012234D6D6805F49C
:100560008034022505EB92421CB9214D55430560AC
:100570000BE01D4D6D6805F400351DB11C4D554354
:10058000056002E0194D5543056002E0174D056016
:1005900000BF00BF144D6D6805F0F0010909154D4D
:1005A0006B5C0568DD4045600F4D6D6805F4E061EA
:1005B000090A104D6B5C4568DD4085600A4D6D6829
:1005C00005F46051C90A0B4D6B5C4568DD40C560A0
:1005D000054D6D6805F44041890B074D6B5CC5689E
:1005E000B5FBF3F5056130BD0010024000127A0042
:1005F00000093D000000002010000020704710B5E9
:1006000000F002F810BD00000CB500200190009031
:100610003348006840F480303149086000BF3048FA
:10062000006800F4003000900198401C0190009890
:1006300018B90198B0F5A06FF1D12948006800F40D
:10064000003010B10120009001E0002000900098DF
:10065000012843D12348006840F010002149086078
:100660000846006820F0030008600846006840F073
:10067000020008601A484068194948600846406806
:1006800048600846406840F480604860084640681A
:1006900020F47C1048600846406840F4E810486048
:1006A0000846006840F08070086000BF0C48006891
:1006B00000F000700028F9D00948406820F00300DD
:1006C000074948600846406840F00200486000BFA3
:1006D0000348406800F00C000828F9D10CBD000068
:1006E0000010024000200240042808D14FF0E02111
:1006F000096941F004014FF0E022116107E04FF079
:10070000E021096921F004014FF0E02211617047F6
:100710007047000010B51348006840F0010011490F
:10072000086008464068104908400E49486008467D
:1007300000680E4908400B4908600846006820F42C
:10074000802008600846406820F4FE0048604FF4AE
:100750001F008860FFF753FF4FF0006004490860F6
:1007600010BD0000001002400000FFF8FFFFF6FE81
:1007700008ED00E021B1028842F08002028004E02E
:1007800002884FF67F731A400280704721B10288B9
:1007900042F00102028004E002884FF6FE731A4024
:1007A0000280704770B5002400220023058C4FF6AC
:1007B000FE7635400584028C8388048B4FF68F7556
:1007C0002C40B51E2C400D882C43751E2A400D89E7
:1007D0002A434D882A43144DA8420BD0134DA842FA
:1007E00008D0134DA84205D0124DA84202D0124D98
:1007F000A84213D14FF6F7752A404D892A434FF688
:10080000FB752A408D882A434FF6FF652B404FF633
:10081000FF552B408D892B43CD892B438380048347
:10082000CD888586028470BD002C014000340140D3
:100830000040014000440140004801400A460021B8
:10084000018B4FF6F7731940114301837047000085
:1008500070B5002400220023058C4FF6EF7635405A
:100860000584028C8388048B48F6FF752C404FF674
:10087000FF452C400D884FF6FF7606EA05252C43F0
:100880004FF6DF752A400D8906EA05152A434D8883
:1008900006EA05152A43154DA84202D0144DA84278
:1008A0001DD14FF67F752A404D894FF6FF7606EA37
:1008B00005152A434FF6BF752A408D8806EA0515AF
:1008C0002A434FF6FF352B404FF2FF752B408D89A1
:1008D00006EA85052B43CD8906EA85052B438380EF
:1008E0000483CD880587028470BD0000002C014080
:1008F000003401400A460021018B4FF2FF7319407A
:100900004FF6FF7303EA0223194301837047000087
:1009100070B5002400220023058C4FF6FF66354099
:100920000584028C8388848B4FF68F752C404FF69C
:10093000FC752C400D882C434FF6FF552A400D893D
:100940004FF6FF7606EA05252A434D8806EA052577
:100950002A43154DA84202D0144DA8421DD14FF292
:10096000FF752A404D894FF6FF7606EA05252A4392
:100970004FF6FF352A408D8806EA05252A434EF6B4
:10098000FF752B404DF6FF752B408D8906EA051546
:100990002B43CD8906EA05152B4383808483CD88BC
:1009A0008587028470BD0000002C014000340140A6
:1009B0000A460021818B4FF6F7731940114381835A
:1009C0007047000070B5002200230024058C4EF60D
:1009D000FF7635400584038C8488828B48F6FF754A
:1009E0002A404FF6FF452A400D884FF6FF7606EA6B
:1009F00005252A434DF6FF752B400D8906EA05357E
:100A00002B434D8806EA05352B430B4DA84202D0F7
:100A10000A4DA84208D14BF6FF752C408D894FF640
:100A2000FF7606EA85152C4384808283CD88A0F862
:100A30004050038470BD0000002C01400034014090
:100A40000A460021818B4FF2FF7319404FF6FF7366
:100A500003EA022319438183704781867047018727
:100A6000704781877047A0F84010704700220288C5
:100A70001D4B98420ED01D4B98420BD0B0F1804FC9
:100A800008D01B4B984205D01A4B984202D01A4B03
:100A9000984204D14FF68F731A404B881A43174B74
:100AA000984207D0164B984204D04FF6FF431A40A5
:100AB000CB881A4302808B8883850B8803850A4B79
:100AC00098420BD0094B984208D00E4B984205D063
:100AD0000D4B984202D00D4B984201D10B7A038600
:100AE0000123838270470000002C01400034014044
:100AF0000004004000080040000C004000100040CE
:100B00000014004000400140004401400048014002
:100B100010B5012000F002F910BD10B5022000F060
:100B2000FDF810BD10B5032000F0F8F810BD10B5A9
:100B30000022002340F66A14A14200D100BF0A122D
:100B400001249440A3B2DC43048010BD21B182890A
:100B500042F40052828104E082894DF6FF731A400C
:100B6000828170471AB1838A0B43838202E0838AB1
:100B70008B438382704702460020B1F5007F00D18D
:100B800000BF13880B400BB1012000E0002070472C
:100B900070B50246002400230025002040F66A16A6
:100BA000B14200D100BFC1F3421501F01F0301267D
:100BB00006FA03F3012D02D19689334006E0022D97
:100BC00002D1168A334001E0968A33400C12012686
:100BD00006FA04F41688344013B10CB1012000E089
:100BE000002070BDF0B5034600240026002500203B
:100BF00040F66A17B94200D100BF1846C1F342144B
:100C000001F01F06012707FA06F5012C01D10C306F
:100C100004E0022C01D1103000E014301AB1076852
:100C20002F43076002E00768AF430760F0BD000094
:100C30002DE9F04786B005460E460024A24600BFC7
:100C4000A1460027B08900B100BF2F462C8A4CF680
:100C5000FF700440F08804432C82AC894EF6F310F8
:100C60000440B08831890843718908430443AC814A
:100C7000AC8A4FF6FF400440B0890443AC8201A81F
:100C8000FFF752FC1F48874202D1DDF810A001E0B7
:100C9000DDF80CA0A88900F4004040B10AEBCA00BE
:100CA00000EB0A1031684900B0FBF1F807E00AEBED
:100CB000CA0000EB0A1031688900B0FBF1F864202B
:100CC000B8FBF0F004012009642101FB1089A88918
:100CD00000F4004040B1322000EBC900B0FBF1F05D
:100CE00000F00700044308E0322000EB0910642103
:100CF000B0FBF1F000F00F0004432C8106B0BDE81A
:100D0000F08700000038014001468888C0F30800E1
:100D10007047C1F3080282807047000070B5044636
:100D200000260025641E254951F8240040F2244184
:100D3000FFF72EFF002840D0204951F82400FFF78C
:100D4000E3FF1F4951F824000021FFF713FA1C4963
:100D500051F82400FFF71AFAC0F1C800C6B21948CA
:100D600050F82400066000BF0DE004EBC40000EB67
:100D70000410154901EBC000405D144951F82410DE
:100D80004855681C85B2B54204DA114850F8240071
:100D9000A842EAD8094951F8240040F22441FFF75B
:100DA000C6FE074951F82400C821FFF711FA04498B
:100DB00051F824000121FFF7DDF970BD1C0000206F
:100DC000D80000206C0500202001002044050020F0
:100DD0005805002000BFFEE7014A024900F013B8A1
:100DE000550F00080801002002E008C8121F08C1C2
:100DF000002AFAD170477047002001E001C1121F9C
:100E0000002AFBD170472DE9F04116460F460446F3
:100E1000002503E03946B047641C6D1C207800288B
:100E2000F8D12846BDE8F08110B56FF00400FFF757
:100E30005BFC0A4800680A49B0FBF1F009490870F8
:100E40000846007800EB4001C1EBC0104FF6FF717F
:100E500001EAC0000449088010BD0000F400002031
:100E600000127A00140000201600002010B58CB08B
:100E70000446194951F824000121FFF725FB04EB32
:100E8000C40000EB0410154901EBC00002901448A7
:100E900050F82400001D019000200390C820049009
:100EA000002008908020069000200790059009906F
:100EB0004FF400500A9000200B900A4951F824008A
:100EC00001A9FFF767F9074951F824000121FFF74D
:100ED00051F90CB010BD0000B0000020200100202E
:100EE0001C000020D800002010B58CB00446154925
:100EF00051F824000121FFF7E7FA134850F82400C5
:100F00000290124850F82400001D01901020039018
:100F10000020049008908020069000200790059003
:100F200009900A900B900A4951F8240001A9FFF793
:100F300031F9074951F824000121FFF71BF90CB0E2
:100F400010BD0000B00000201C0500201C00002087
:100F5000C400002070B504460D46E1B20548FFF715
:100F6000D8FE00BF40210348FFF705FE0028F9D056
:100F7000204670BD0038014038B50446164951F886
:100F800024000121FFF70EFA144951F82400012131
:100F9000FFF7BAFA124830F8240080B2ADF800002A
:100FA00018208DF8030003208DF802000D4951F838
:100FB00024006946FFF76AF90B4830F8240080B234
:100FC000ADF8000004208DF80300064951F8240014
:100FD0006946FFF75BF938BD0C0100206C0000206A
:100FE00080000020580000209400002088B04FF4BA
:100FF000A060FFF75DFA01210846FFF785FA01219D
:101000003048FFF7CFF9FFF70FFF00F07FF84FF4FC
:10101000E131012000F000FA53E000200390049039
:1010200005900690009001900346274A27490290B8
:10103000012000F041F9002843D02448006801282D
:1010400006D12148008881B22148FFF706FD35E02E
:101050001E480068022806D11B48008881B21C483F
:10106000FFF7FDFC2AE019480068032806D116485E
:10107000008881B21748FFF7F0FC1FE013480068B2
:10108000042806D11048008881B21248FFF7E7FC17
:1010900014E00E480068052806D10B48008881B28C
:1010A0000C48FFF7DEFC09E008480068062805D177
:1010B0000548008881B20748FFF7D5FC06A0FFF776
:1010C0008BFEAAE700023000F0000020EC000020B8
:1010D00000040040000800406461746120676F7480
:1010E0002121210038B504460748005D8DF8000035
:1010F00001208DF801008DF802008DF8030068468C
:10110000FFF79EF938BD0000A800002010B500F0E0
:1011100003F800F06FF810BD00B589B0012102207E
:10112000FFF7E2F901210C20FFF7EEF918208DF806
:101130000700C020ADF8040003208DF8060001A9C7
:101140002948FFF7A3F818208DF807000320ADF811
:1011500004008DF8060001A92448FFF797F844F62B
:101160001F60ADF81C004720ADF818000020ADF856
:101170001A00ADF81E0006A91D48FFF777FC602095
:10118000ADF808000120ADF80A000020ADF80E000F
:10119000ADF8100002A91648FFF704FB02A9144895
:1011A000FFF756FB02A91248FFF7B2FB02A910484D
:1011B000FFF708FC08210E48FFF740FB08210C4808
:1011C000FFF798FB08210A48FFF7F2FB08210848BF
:1011D000FFF736FC01210648FFF7CCFA012104484D
:1011E000FFF7D4FA09B000BD00080140000C01402F
:1011F0000004004000B589B001210420FFF774F914
:1012000001210820FFF780F918208DF807004FF41E
:101210007070ADF8040003208DF8060001A9244881
:10122000FFF734F844F61F60ADF81C004720ADF816
:1012300018000020ADF81A00ADF81E0006A91D48E0
:10124000FFF714FC6020ADF808000120ADF80A009B
:101250000020ADF80E00ADF8100002A91548FFF708
:10126000A1FA02A91348FFF7F3FA02A91148FFF700
:101270004FFB02A90F48FFF7A5FB08210D48FFF718
:10128000DDFA08210B48FFF735FB08210948FFF775
:101290008FFB08210748FFF7D3FB01210548FFF723
:1012A00069FA01210348FFF771FA09B000BD000097
:1012B000000C0140000800402DE9F04F8DB00446BD
:1012C0000F4690469946DDE916AB282103A8FEF7A4
:1012D00032FF002600250020029001200190601EB0
:1012E0004B4951F8200000287ED000BF48E0601E26
:1012F00000EBC00101EB0010464901EB4000405DEE
:10130000392823DC601E00EBC00101EB00104149CD
:1013100001EB4000405D302818DB03A850F82600A0
:1013200000EB80004200601E00EBC00101EB0010EA
:10133000384901EB4000405D3038019900FB012045
:1013400003A941F826000120029018E0601E00EB7E
:10135000C00101EB00102F4901EB4000405D2D283A
:1013600003D14FF0FF30019009E00298012803D12A
:10137000701CC6B2002002900A2E00D106E06D1C3F
:10138000601E234951F82000A842B0DC00BF0FB115
:1013900003983860B8F1000F02D00498C8F8000034
:1013A000B9F1000F02D00598C9F80000BAF1000F9A
:1013B00002D00698CAF80000BBF1000F02D00798CF
:1013C000CBF80000189810B1089918980160199886
:1013D00010B10999199801601A9810B10A991A98D0
:1013E00001601B9820B100E010E00B991B98016090
:1013F0001C9810B10C991C9801600021601E044AD1
:1014000042F8201001200DB0BDE8F08F0020FAE76F
:10141000380B0020700A00203EB504460D46601EC1
:101420000E4901EB80003222611E01EBC10303EB88
:1014300001110B4B03EB4101CDE900120290601E3C
:1014400000EB800101EBC000064901EB8002342370
:101450002946204600F008F83EBD0000380B002069
:10146000700A0020900900202DE9F04704460D463F
:1014700016461F46DDE9099ADDF82080641E2048E3
:1014800040F824501F4840F824601F4840F824804A
:101490001E4840F824701E4840F824901D4840F82B
:1014A00024A02046FFF71EFE1B4850F8240010B170
:1014B0002046FFF719FD194850F8240010B12046C6
:1014C000FFF7D4FC204600F02DF82046FFF754FD2E
:1014D000134951F82400012240F22441FFF782FB16
:1014E0000F4951F824000122C021FFF73BFB0C49B2
:1014F00051F824000121FFF729FBBDE8F087000027
:10150000080500201C0500204405002030050020AF
:10151000580500206C050020C4000020D8000020E1
:101520001C0000201FB50446114951F82400012178
:10153000FEF7EAFF0F4951F824000121FEF7D4FF1E
:101540000D4850F8240000900C20ADF80A0000204F
:10155000ADF80400ADF80800ADF80600ADF80C00D9
:10156000064951F824006946FFF762FB1FBD0000E1
:101570004400002030000020080500201C0000204E
:10158000A0150008000000200C010000E80D000874
:10159000AC1600080C0100203C0E0000F80D0008FD
:1015A0000000000001020304010203040607080909
:1015B000020406080000000000000000003801409E
:1015C000004400400048004000000000000000000F
:1015D0000000000000000200000004000000000005
:1015E00000000000004000000000000000000000BB
:1015F0000000000000000000000801400008014059
:10160000000C014000000000000000000400000089
:1016100004000000080000000000000000000000BE
:1016200000020000040000000004000000000000B0
:101630000000000000040000080000000008000096
:101640000000000000000000252627000000000028
:101650000100000001000000010000000000000087
:101660000000000044000240800002401C000240D4
:101670000000000000000000580002406C00024022
:1016800030000240000000000000000000000000E8
:101690000000000000A24A0400000000000000005A
:0C16A00001020304060708090000000016
:04000005080000ED02
:00000001FF
