:020000040800F2
:10000000B00F002005010008BD040008B504000879
:10001000B9040008F3010008550E000800000000B4
:100020000000000000000000000000007D06000845
:10003000570200080000000045050008910700086D
:100040001F0100081F0100081F0100081F01000810
:100050001F0100081F01000859020008890200085A
:10006000A1020008B9020008D10200081F0100081F
:100070001F0100081F0100081F0100081F010008E0
:100080001F0100081F0100081F0100081F010008D0
:100090001F0100081F0100081F010008E9020008F5
:1000A0001F0100081F0100081F0100081F010008B0
:1000B0001F0100081F0100081F0100081F010008A0
:1000C0001F0100081F0100081F0100081F01000890
:1000D0001F010008910B00089B0B0008A50B0008EE
:1000E000710200081F0100081F010008DFF810D08E
:1000F00000F042F800480047B1110008AFF300805B
:10010000B00F00200648804706480047FEE7FEE79C
:10011000FEE7FEE7FEE7FEE7FEE7FEE7FEE7FEE7B7
:1001200095070008ED000008D2B201E000F8012BAD
:10013000491EFBD270470022F6E710B513460A4667
:1001400004461946FFF7F0FF204610BD30B50B46B8
:10015000014600202022012409E021FA02F59D42F7
:1001600005D303FA02F5491B04FA02F52844151ECB
:10017000A2F10102F1DC30BD064C074D06E0E0685B
:1001800040F0010394E8070098471034AC42F6D3DE
:10019000FFF7B0FF781800089818000870B58C18A1
:1001A00010F8015B15F0070301D110F8013B2A118B
:1001B00006D110F8012B03E010F8016B01F8016B78
:1001C0005B1EF9D12B0705D40023521E0DD401F874
:1001D000013BFAE710F8013BCB1A921C03E013F83D
:1001E000015B01F8015B521EF9D5A142D8D3002072
:1001F00070BD00BFFEE721B1026842F0010202605B
:1002000004E002684FF6FE731A4002607047014630
:10021000486880B2704710B50022026847F6F07354
:100220009A430C6A8B6823430C6923434C6923432C
:100230008C692343CC6923434C6A23438C6A234350
:100240001A430260CB6843600B6883604B68C360ED
:1002500010BD41607047704710B5034800F050F87A
:1002600002480068804710BDFFFF0F001800002003
:1002700010B5034800F044F802480068804710BDFC
:10028000FFFF0F001800002010B5034800F038F8F9
:1002900002480068804710BDFFFF0F0018000020D3
:1002A00010B5034800F02CF802480068804710BDE4
:1002B000FFFF0F001800002010B5034800F020F8E1
:1002C00002480068804710BDFFFF0F0018000020A3
:1002D00010B5034800F014F802480068804710BDCC
:1002E000FFFF0F001800002010B5034800F008F8C9
:1002F00002480068804710BDFFFF0F001800002073
:100300000149086070470000140401402DE9F041E4
:10031000024600250026002000230024002791F833
:1003200003C00CF00F0591F803C00CF0100CBCF1E9
:10033000000F03D091F802C04CEA050591F800C007
:10034000BCF1000F31D0146800202BE04FF0010CFD
:100350000CFA00F3B1F800C00CEA03069E4220D16B
:1003600083004FF00F0C0CFA03F7BC4305FA03FCB3
:100370004CEA040491F803C0BCF1280F06D14FF0F9
:10038000010C0CFA00FCC2F814C00AE091F803C09A
:10039000BCF1480F05D14FF0010C0CFA00FCC2F87B
:1003A00010C0401C0828D1D31460B1F800C0BCF1C3
:1003B000FF0F34DD546800202EE000F1080C4FF0F0
:1003C000010808FA0CF3B1F800C00CEA03069E42DB
:1003D00021D183004FF00F0C0CFA03F7BC4305FA50
:1003E00003FC4CEA040491F803C0BCF1280F05D1CA
:1003F00000F1080C08FA0CF8C2F8148091F803C058
:10040000BCF1480F07D100F1080C4FF0010808FAC1
:100410000CF8C2F81080401C0828CED35460BDE808
:10042000F0810000F0B50A460023002400210025D9
:1004300000F00046B6F1004F02D11D4EF16901E017
:100440001B4E7168C0F3034583B200F44016B6F545
:10045000401F08D121F07061154E766826F0706655
:10046000134F7E6012E000F48016B6F5801F06D1AF
:10047000032606FA05F4A14341F0706106E0460D3B
:10048000360103FA06F6B14341F0706122B1460D20
:10049000360103FA06F6314300F00046B6F1004F8C
:1004A00002D1034EF16101E0014E7160F0BD000028
:1004B0000000014000BFFEE700BFFEE770470000FC
:1004C00070B5002100230F22C47804B3154C2468B2
:1004D00004F4E064C4F5E064210AC1F10403CA40F5
:1004E000447804FA03F184781440214309010E4C46
:1004F0000678A155047804F01F050124AC40057866
:100500006D11AD0005F1E025C5F8004109E0047862
:1005100004F01F050124AC40044D0678761145F81F
:10052000264070BD0CED00E000E400E080E100E05A
:1005300002490143024A1160704700000000FA05B9
:100540000CED00E07047000029B1064A52690243F1
:10055000044B5A6104E0034A52698243014B5A61D9
:10056000704700000010024029B1064AD2690243D8
:10057000044BDA6104E0034AD2698243014BDA6139
:10058000704700000010024029B1064A92690243F8
:10059000044B9A6104E0034A92698243014B9A61D9
:1005A000704700000010024030B5002100220024F6
:1005B00000232D4D6D6805F00C0121B1042905D0F3
:1005C000082923D105E0294D056022E0274D05606B
:1005D0001FE0254D6D6805F47012234D6D6805F41C
:1005E0008034022505EB92421CB9214D554305602C
:1005F0000BE01D4D6D6805F400351DB11C4D5543D4
:10060000056002E0194D5543056002E0174D056095
:1006100000BF00BF144D6D6805F0F0010909154DCC
:100620006B5C0568DD4045600F4D6D6805F4E06169
:10063000090A104D6B5C4568DD4085600A4D6D68A8
:1006400005F46051C90A0B4D6B5C4568DD40C5601F
:10065000054D6D6805F44041890B074D6B5CC5681D
:10066000B5FBF3F5056130BD0010024000127A00C1
:1006700000093D000000002010000020704710B568
:1006800000F002F810BD00000CB5002001900090B1
:100690003348006840F480303149086000BF30487A
:1006A000006800F4003000900198401C0190009810
:1006B00018B90198B0F5A06FF1D12948006800F48D
:1006C000003010B10120009001E00020009000985F
:1006D000012843D12348006840F0100021490860F8
:1006E0000846006820F0030008600846006840F0F3
:1006F000020008601A484068194948600846406886
:1007000048600846406840F4806048600846406899
:1007100020F47C1048600846406840F4E8104860C7
:100720000846006840F08070086000BF0C48006810
:1007300000F000700028F9D00948406820F003005C
:10074000074948600846406840F00200486000BF22
:100750000348406800F00C000828F9D10CBD0000E7
:100760000010024000200240042808D14FF0E02190
:10077000096941F004014FF0E022116107E04FF0F8
:10078000E021096921F004014FF0E0221161704776
:100790007047000010B51348006840F0010011498F
:1007A000086008464068104908400E4948600846FD
:1007B00000680E4908400B4908600846006820F4AC
:1007C000802008600846406820F4FE0048604FF42E
:1007D0001F008860FFF753FF4FF000600449086076
:1007E00010BD0000001002400000FFF8FFFFF6FE01
:1007F00008ED00E021B1028842F08002028004E0AE
:1008000002884FF67F731A400280704721B1028838
:1008100042F00102028004E002884FF6FE731A40A3
:100820000280704770B5002400220023058C4FF62B
:10083000FE7635400584028C8388048B4FF68F75D5
:100840002C40B51E2C400D882C43751E2A400D8966
:100850002A434D882A43144DA8420BD0134DA84279
:1008600008D0134DA84205D0124DA84202D0124D17
:10087000A84213D14FF6F7752A404D892A434FF607
:10088000FB752A408D882A434FF6FF652B404FF6B3
:10089000FF552B408D892B43CD892B4383800483C7
:1008A000CD888586028470BD002C01400034014053
:1008B0000040014000440140004801400A46002138
:1008C000018B4FF6F7731940114301837047000005
:1008D00070B5002400220023058C4FF6EF763540DA
:1008E0000584028C8388048B48F6FF752C404FF6F4
:1008F000FF452C400D884FF6FF7606EA05252C4370
:100900004FF6DF752A400D8906EA05152A434D8802
:1009100006EA05152A43154DA84202D0144DA842F7
:100920001DD14FF67F752A404D894FF6FF7606EAB6
:1009300005152A434FF6BF752A408D8806EA05152E
:100940002A434FF6FF352B404FF2FF752B408D8920
:1009500006EA85052B43CD8906EA85052B4383806E
:100960000483CD880587028470BD0000002C0140FF
:10097000003401400A460021018B4FF2FF731940F9
:100980004FF6FF7303EA0223194301837047000007
:1009900070B5002400220023058C4FF6FF66354019
:1009A0000584028C8388848B4FF68F752C404FF61C
:1009B000FC752C400D882C434FF6FF552A400D89BD
:1009C0004FF6FF7606EA05252A434D8806EA0525F7
:1009D0002A43154DA84202D0144DA8421DD14FF212
:1009E000FF752A404D894FF6FF7606EA05252A4312
:1009F0004FF6FF352A408D8806EA05252A434EF634
:100A0000FF752B404DF6FF752B408D8906EA0515C5
:100A10002B43CD8906EA05152B4383808483CD883B
:100A20008587028470BD0000002C01400034014025
:100A30000A460021818B4FF6F773194011438183D9
:100A40007047000070B5002200230024058C4EF68C
:100A5000FF7635400584038C8488828B48F6FF75C9
:100A60002A404FF6FF452A400D884FF6FF7606EAEA
:100A700005252A434DF6FF752B400D8906EA0535FD
:100A80002B434D8806EA05352B430B4DA84202D077
:100A90000A4DA84208D14BF6FF752C408D894FF6C0
:100AA000FF7606EA85152C4384808283CD88A0F8E2
:100AB0004050038470BD0000002C01400034014010
:100AC0000A460021818B4FF2FF7319404FF6FF73E6
:100AD00003EA0223194381837047818670470187A7
:100AE000704781877047A0F8401070470022028845
:100AF0001D4B98420ED01D4B98420BD0B0F1804F49
:100B000008D01B4B984205D01A4B984202D01A4B82
:100B1000984204D14FF68F731A404B881A43174BF3
:100B2000984207D0164B984204D04FF6FF431A4024
:100B3000CB881A4302808B8883850B8803850A4BF8
:100B400098420BD0094B984208D00E4B984205D0E2
:100B50000D4B984202D00D4B984201D10B7A03867F
:100B60000123838270470000002C014000340140C3
:100B70000004004000080040000C0040001000404D
:100B80000014004000400140004401400048014082
:100B900010B5012000F002F910BD10B5022000F0E0
:100BA000FDF810BD10B5032000F0F8F810BD10B529
:100BB0000022002340F66A14A14200D100BF0A12AD
:100BC00001249440A3B2DC43048010BD21B182898A
:100BD00042F40052828104E082894DF6FF731A408C
:100BE000828170471AB1838A0B43838202E0838A31
:100BF0008B438382704702460020B1F5007F00D10D
:100C000000BF13880B400BB1012000E000207047AB
:100C100070B50246002400230025002040F66A1625
:100C2000B14200D100BFC1F3421501F01F030126FC
:100C300006FA03F3012D02D19689334006E0022D16
:100C400002D1168A334001E0968A33400C12012605
:100C500006FA04F41688344013B10CB1012000E008
:100C6000002070BDF0B503460024002600250020BA
:100C700040F66A17B94200D100BF1846C1F34214CA
:100C800001F01F06012707FA06F5012C01D10C30EF
:100C900004E0022C01D1103000E014301AB10768D2
:100CA0002F43076002E00768AF430760F0BD000014
:100CB0002DE9F04786B005460E460024A24600BF47
:100CC000A1460027B08900B100BF2F462C8A4CF600
:100CD000FF700440F08804432C82AC894EF6F31078
:100CE0000440B08831890843718908430443AC81CA
:100CF000AC8A4FF6FF400440B0890443AC8201A89F
:100D0000FFF752FC1F48874202D1DDF810A001E036
:100D1000DDF80CA0A88900F4004040B10AEBCA003D
:100D200000EB0A1031684900B0FBF1F807E00AEB6C
:100D3000CA0000EB0A1031688900B0FBF1F86420AA
:100D4000B8FBF0F004012009642101FB1089A88997
:100D500000F4004040B1322000EBC900B0FBF1F0DC
:100D600000F00700044308E0322000EB0910642182
:100D7000B0FBF1F000F00F0004432C8106B0BDE899
:100D8000F08700000038014001468888C0F3080061
:100D90007047C1F3080282807047000070B50446B6
:100DA00000260025641E254951F8240040F2244104
:100DB000FFF72EFF002840D0204951F82400FFF70C
:100DC000E3FF1F4951F824000021FFF714FA1C49E2
:100DD00051F82400FFF71BFAC0F1C800C6B2194849
:100DE00050F82400066000BF0DE004EBC40000EBE7
:100DF0000410154901EBC000405D144951F824105E
:100E00004855681C85B2B54204DA114850F82400F0
:100E1000A842EAD8094951F8240040F22441FFF7DA
:100E2000C6FE074951F82400C821FFF712FA044909
:100E300051F824000121FFF7DEF970BD1C000020ED
:100E4000D800002094050020480100206C050020F7
:100E50008005002000BFFEE70FB4054B10B503A9C5
:100E6000044A029800F018F810BC5DF814FB00006A
:100E7000191100083001002002E008C8121F08C143
:100E8000002AFAD170477047002001E001C1121F0B
:100E9000002AFBD1704700002DE9FF4F89B09B4627
:100EA0000446002506E025280BD05A460B999047AA
:100EB000641C6D1C20780028F5D10DB02846BDE8D3
:100EC000F08F0027B8460122474900E0074314F895
:100ED000013F203B02FA03F00842F7D120782E2888
:100EE00019D114F8010F47F004072A280ED06FF02B
:100EF0002F022078A0F1300109290CD808EB8801D5
:100F000002EB410100EB0108641CF2E70A98641C43
:100F100050F8048B0A9020780028CED0642808D09E
:100F2000692806D075281ED05A460B9990476D1C2B
:100F300058E00A994FF00A0901C90A91002802DA1B
:100F400040422D2102E0390504D52B218DF82010D7
:100F5000012103E0F90704D02021F7E78A4608AE13
:100F60000DE00021FAE70A994FF00A0901C90A9138
:100F7000F7E74946FFF7EAF8303106F8011D002887
:100F8000F7D1ADEB060000F12009780701D44FF04E
:100F90000108C84502DDA8EB090000E000208046FA
:100FA000002706E008A85A46C05D0B9990476D1CC3
:100FB0007F1C5745F6DB04E030205A460B999047DA
:100FC0006D1CB8F10001A8F10108F5DC05E016F888
:100FD000010B5A460B9990476D1CB9F10001A9F11C
:100FE0000109F4DC641C65E70928010010B56FF005
:100FF0000400FFF7B9FB0A4800680A49B0FBF1F0AA
:10100000094908700846007800EB4001C1EBC010A8
:101010004FF6FF7101EAC0000449088010BD0000CE
:101020001C01002000127A0014000020160000208D
:1010300010B58CB00446194951F824000121FFF77E
:1010400083FA04EBC40000EB0410154901EBC00067
:101050000290144850F82400001D019000200390D5
:10106000C82004900020089080200690002007905F
:10107000059009904FF400500A9000200B900A4907
:1010800051F8240001A9FFF7C6F8074951F82400D8
:101090000121FFF7B0F80CB010BD0000B000002037
:1010A000480100201C000020D800002010B58CB0A2
:1010B0000446154951F824000121FFF745FA134869
:1010C00050F824000290124850F82400001D0190AE
:1010D00010200390002004900890802006900020AB
:1010E0000790059009900A900B900A4951F8240046
:1010F00001A9FFF790F8074951F824000121FFF7F3
:101100007AF80CB010BD0000B000002044050020AB
:101110001C000020C400002070B504460D46E1B25A
:101120000548FFF736FE00BF40210348FFF763FD87
:101130000028F9D0204670BD0038014038B504467B
:10114000164951F824000121FFF76CF9144951F8B0
:1011500024000121FFF718FA124830F8240080B269
:10116000ADF8000018208DF8030003208DF8020070
:101170000D4951F824006946FFF7C8F80B4830F8CC
:10118000240080B2ADF8000004208DF80300064969
:1011900051F824006946FFF7B9F838BD3401002042
:1011A0006C000020800000205800002094000020E7
:1011B00088B04FF4A060FFF7BBF901210846FFF7A4
:1011C000E3F901217148FFF72DF9FFF70FFF00F058
:1011D00017F94FF4E131012000F09AFA4FF4E131B0
:1011E000022000F095FAD0E00020039004900590D2
:1011F000674A0690CDE90020664B02466649029098
:10120000022000F0D3F9D8B164480068002809DA58
:1012100060480068642148435D490968401A5F4995
:10122000086008E05A4800685A490968642202FBCD
:1012300001005A4908605948016859A0FFF70CFE9F
:1012400000205B4A5B4BCDE90420039306905A488B
:101250005A495B4A5B4BCDE9002102905A4A5B49EF
:10126000012000F0A3F90028BDD0584800680128EB
:1012700006D15548008881B25548FFF72EFC84E01E
:1012800052480068022806D14F48008881B2504871
:10129000FFF725FC79E04D480068032806D14A484D
:1012A000008881B24B48FFF718FC6EE047480068A1
:1012B000042806D14448008881B24648FFF70FFC55
:1012C00063E042480068052806D13F48008881B2A3
:1012D0004048FFF706FC58E03C480068062806D165
:1012E0003948008881B23B48FFF7FDFB4DE03548A7
:1012F000006818B940F2DC50324908603048006894
:1013000018B940F2DC502E4908602C48006818B922
:1013100040F2DC50294908602748006818B940F2BB
:10132000DC50254908602348006818B940F2DC50B9
:10133000204908601E48006818B940F2DC501C497A
:1013400008602048008881B22148FFF7C6FB1C488E
:10135000008881B21E48FFF7C2FB1848008881B29E
:101360001C48FFF7BAFB1448008881B21948FFF700
:10137000B6FB1048008881B21648FFF7B2FB0C4854
:10138000008881B21348FFF7AEFB2DE70002300062
:101390001401002010010020180100200C01002081
:1013A0006465707468203D2025640D0A000000000B
:1013B000080100200401002000010020FC000020A2
:1013C000F8000020F4000020F0000020EC000020D5
:1013D000000400400008004038B504460748005D9E
:1013E0008DF8000001208DF801008DF802008DF8C5
:1013F00003006846FFF764F838BD0000A80000202D
:1014000010B500F003F800F06FF810BD00B589B01A
:1014100001210220FFF7A8F801210C20FFF7B4F802
:1014200018208DF80700C020ADF8040003208DF8C7
:10143000060001A92948FEF769FF18208DF807006A
:101440000320ADF804008DF8060001A92448FEF73A
:101450005DFF44F61F60ADF81C004720ADF8180092
:101460000020ADF81A00ADF81E0006A91D48FFF7D0
:101470003DFB6020ADF808000120ADF80A00002017
:10148000ADF80E00ADF8100002A91648FFF7CAF932
:1014900002A91448FFF71CFA02A91248FFF778FACC
:1014A00002A91048FFF7CEFA08210E48FFF706FA06
:1014B00008210C48FFF75EFA08210A48FFF7B8FA3E
:1014C00008210848FFF7FCFA01210648FFF792F9C6
:1014D00001210448FFF79AF909B000BD0008014056
:1014E000000C01400004004000B589B00121042037
:1014F000FFF73AF801210820FFF746F818208DF889
:1015000007004FF47070ADF8040003208DF806005A
:1015100001A92448FEF7FAFE44F61F60ADF81C004E
:101520004720ADF818000020ADF81A00ADF81E00F5
:1015300006A91D48FFF7DAFA6020ADF8080001207F
:10154000ADF80A000020ADF80E00ADF8100002A9B9
:101550001548FFF767F902A91348FFF7B9F902A97F
:101560001148FFF715FA02A90F48FFF76BFA082197
:101570000D48FFF7A3F908210B48FFF7FBF90821F5
:101580000948FFF755FA08210748FFF799FA0121A2
:101590000548FFF72FF901210348FFF737F909B094
:1015A00000BD0000000C0140000800402DE9F04F94
:1015B0008DB004460F4690469946DDE916AB2821CA
:1015C00003A8FEF7B8FD00260025002002900120A8
:1015D0000190601E4C4951F8200000287ED000BFC9
:1015E0004AE0601E00EBC00101EB0010474901EB2F
:1015F0004000405D392823DC601E00EBC00101EB98
:101600000010424901EB4000405D302818DB03A880
:1016100050F8260000EB80004200601E00EBC00185
:1016200001EB0010394901EB4000405D3038019971
:1016300000FB012003A941F82600012002901AE0D6
:10164000601E00EBC00101EB0010304901EB4000CF
:10165000405D2D2803D14FF0FF3001900BE00120B9
:1016600001900298012803D1701CC6B2002002909C
:101670000A2E00D106E06D1C601E234951F820009F
:10168000A842AEDC00BF0FB103983860B8F1000F7C
:1016900002D00498C8F80000B9F1000F02D00598F4
:1016A000C9F80000BAF1000F02D00698CAF800008D
:1016B000BBF1000F02D00798CBF80000189810B1CA
:1016C000089918980160199810B109991998016042
:1016D0001A9810B10A991A98016000E012E01B985C
:1016E00010B10B991B9801601C9810B10C991C98B3
:1016F00001600021601E044A42F8201001200DB054
:10170000BDE8F08F0020FAE7600B0020980A002067
:101710003EB504460D46601E0E4901EB80003222A4
:10172000611E01EBC10303EB01110B4B03EB410104
:10173000CDE900120290601E00EB800101EBC000B9
:10174000064901EB800234232946204600F008F8C0
:101750003EBD0000600B0020980A0020B809002060
:101760002DE9F04704460D4616461F46DDE9099A65
:10177000DDF82080641E204840F824501F4840F8BF
:1017800024601F4840F824801E4840F824701E48FA
:1017900040F824901D4840F824A02046FFF71CFE86
:1017A0001B4850F8240010B12046FFF77FFC194871
:1017B00050F8240010B12046FFF73AFC204600F014
:1017C0002DF82046FFF7BAFC134951F824000122F6
:1017D00040F22441FFF746FA0F4951F82400012254
:1017E000C021FFF7FFF90C4951F824000121FFF750
:1017F000EDF9BDE8F0870000300500204405002029
:101800006C0500205805002080050020940500206C
:10181000C4000020D80000201C0000201FB5044692
:10182000114951F824000121FEF7AEFE0F4951F88D
:1018300024000121FEF798FE0D4850F82400009086
:101840000C20ADF80A000020ADF80400ADF8080047
:10185000ADF80600ADF80C00064951F824006946C1
:10186000FFF726FA1FBD00004400002030000020D2
:10187000300500201C0000209818000800000020FF
:10188000340100009C010008041900083401002004
:101890007C0E0000880E0008412D01020304049014
:1018A0000906070809020406081438014012441208
:1018B000401A4804D13202A204D91E511A083C2908
:1018C000041A0C0471293229048961494B394A9957
:1018D0004F290C39249929542526279A010481126D
:1018E000441C024080041A1C04811A580C1A6C040F
:1018F0009A301401317BA24A964009010203040682
:0419000007080900CB
:04000005080000ED02
:00000001FF
