:020000040800F2
:10000000501000200501000805130008510E0008DB
:1000100001130008350B0008F91E0008000000005D
:100020000000000000000000000000002117000890
:10003000F10B0008000000008D13000835180008BF
:100040001F0100081F0100081F0100081F01000810
:100050001F0100081F010008F50B0008250C00080F
:100060003D0C0008550C00086D0C00081F0100082D
:100070001F0100081F0100081F0100081F010008E0
:100080001F0100081F0100081F0100081F010008D0
:100090001F0100081F0100081F010008850C00084F
:1000A0001F0100081F0100081F0100081F010008B0
:1000B0001F0100081F0100081F0100081F010008A0
:1000C0001F0100081F0100081F0100081F01000890
:1000D0001F010008351C00083F1C0008491C0008CF
:1000E0000D0C00081F0100081F010008DFF810D0E8
:1000F00000F092FC00480047593E0008AFF3008032
:10010000501000200648804706480047FEE7FEE7FB
:10011000FEE7FEE7FEE7FEE7FEE7FEE7FEE7FEE7B7
:1001200039180008ED0000082DE9F0410024061BF5
:10013000254671F1000605DA01240027D0EB0700FF
:1001400067EB0101161E73F1000605DA0027D2EBFA
:100150000702012567EB030300F0CAFA86460E4644
:1001600017469C46AC4204D00025D0EB050E65EB4B
:10017000010624B10020D2EB000760EB030C7046AF
:1001800031463A466346BDE8F081D2B201E000F85C
:10019000012B491EFBD270470022F6E710B513462B
:1001A0000A4604461946FFF7F0FF204610BD30B559
:1001B00004460020034600E05B1C934203D2E05C4F
:1001C000CD5C401BF8D030BDF0B480EA0102D40F02
:1001D0004200B2EB410F02D20246084611464A00E5
:1001E00042D0C30DDDB2C1F3C752AD1A202D35DAAE
:1001F000C1F3160141F4000204B15242C5F12006D8
:1002000002FA06F12A411044B3EBD05F23D0C4B107
:10021000012DA0EBC35009DCF0BC4FF0004202EA14
:10022000C352DBB200F5000000F0CDBA400000F18F
:10023000807000EBC350A0F1807040EAD17049009B
:1002400009E0490841EAC071A0EBC35000F5000085
:10025000400800EBC350F0BC00F0ACBA6142012290
:1002600002EB4101001BF6E7F0BC704781F0004152
:10027000AAE780F00040A7E780EA010210B502F08B
:100280000043400022D04A001FD0010E01EB126152
:10029000C0F35600C2F3560240F4000042F40002DC
:1002A000A0FB022000047F39140400D0401C50EA57
:1002B000124001D44000491EC2B20C0604EBD0101B
:1002C000401C4008802A02D003E0002010BD20F02E
:1002D0000100002900DA0020184310BD30B480EA84
:1002E000010202F0004530F0004221F0004013D03E
:1002F00090B1C30DD40DC2F31601C0F31600E41A79
:1003000041F4000140F400027D34914201D3641CA9
:1003100000E04900002C02DA30BC002070474FF4A6
:1003200000000023914201D3891A034340084FEA99
:100330004101F7D151B1914202D14FF0004105E0A6
:1003400002D24FF0010101E06FF0010103EBC45054
:10035000284430BC00F02EBA2DE9FE4F804681EAD9
:100360000300C00F0C46009021F0004123F000452F
:10037000B8EB0200A94105D24046214690461C46F2
:100380000B46024623F00040104347D0270DC7F329
:100390000A00C3F30A510290401A019040286BDA18
:1003A000C3F3130040F4801B0098924620B1002351
:1003B000D2EB030A63EB0B0B01985946C0F14002E4
:1003C000504600F0C6F906460D4650465946019A79
:1003D00000F0DEF910EB08006141002487EA1152B9
:1003E00084EAE7731A4340D0009A62B3019A012A63
:1003F0004FEA075215DC001B61EB02014FF000428F
:1004000002EA0752CDE90042001C41F58011324654
:100410002B4600F015FA03B0BDE8F08F40462146A8
:10042000F9E7001B61EB0201001C41F58013001885
:100430005B412018A2F5001747EB030140EAD57095
:10044000B6196D4111E06D084FEA360645EAC075F0
:100450004FEA0752001B61EB0201001C41F58011BD
:1004600049084FEA30000019514132462B4603B08B
:10047000BDE8F04F00F0D5B90098012240000023FC
:10048000D0EB020263EBE073009821464FEAE07480
:10049000B8EB000061EB0401E9E783F000435BE7A0
:1004A00081F0004158E72DE9FE4F81EA030404F092
:1004B000004421F0004100944FF0000B23F0004372
:1004C00050EA01045ED052EA03045BD0C3F30A543D
:1004D000C1F30A552C44A4F2F3340194A0FB025456
:1004E000C1F3130141F48011C3F3130343F48013E8
:1004F00001FB024400FB034E840A970A44EA81543C
:1005000047EA8357A4FB076802958D0A05FB078518
:100510004FEA932C04FB0C542705029D4FEA065822
:1005200047EA1637B5EB08056EEB070C870E920EFF
:1005300047EA811742EA8312A7FB0201B6EB0B01DF
:1005400064EB00042B0D43EA0C335E1844EB1C50A3
:10055000DA465146E7FB0201C5F313044FEA0B33B9
:1005600043EA14534FEA0432019C43EA0603A4F120
:100570000C040294009CCDE900B400F061F903B0D2
:10058000BDE8F08F00200146F9E7C10F80EAE07076
:100590000844CA079623002100F015B996230022CB
:1005A000114600F010B900F0004220F00040C10DEB
:1005B000C0F3160040F400007F2901DA00207047E4
:1005C000962903DCC1F19601C84001E096398840C4
:1005D000002AF4D04042704720F00040C10DC0F323
:1005E000160040F400007F2901DA002070479629A8
:1005F00003DCC1F19601C8407047963988407047C6
:1006000070B5C1F30A5201F000450024C1F3130193
:1006100040F2FF3341F480119A4201DA002070BDAC
:1006200040F233439A42A2F2334203DC524200F0DA
:100630009FF800E090402C43F1D0404270BD00F0A4
:10064000004230F000400AD0C10D01F56071C0F3E6
:10065000160042EA0151C2084007114370470020CA
:100660000146704701F0004330B421F0004150EAE8
:10067000010206D00A0DA2F56072C1F31301002A2F
:1006800002DC30BC00207047440F44EAC104C100C2
:10069000E01830BC00EBC25000F08CB8002801DB41
:1006A000C0F10040002901DBC1F1004181427047E7
:1006B000002801DBC0F10040002901DBC1F100414D
:1006C0008842704730B50B460146002020220124A5
:1006D00009E021FA02F59D4205D303FA02F5491B10
:1006E00004FA02F52844151EA2F10102F1DC30BD26
:1006F0002DE9F05F0546002092469B468846064657
:10070000814640241BE0284641464746224600F0E9
:100710002FF853465A46C01A914110D31146184635
:10072000224600F016F82D1A67EB01084F462246C4
:100730000120002100F00DF817EB00094E41201EAA
:10074000A4F10104DFDC484631462A464346BDE8B1
:10075000F09F202A04DB203A00FA02F100207047C3
:100760009140C2F1200320FA03F3194390407047EF
:10077000202A04DB203A21FA02F00021704721FAF6
:1007800002F3D040C2F1200291400843194670475D
:10079000202A06DBCB17203A41FA02F043EAE07345
:1007A00006E041FA02F3D040C2F120029140084332
:1007B000194670470029A8BF7047401C490008BF70
:1007C00020F00100704710B4B0FA80FC00FA0CF081
:1007D00050EA010404BF10BC704749B1CCF12004B9
:1007E00021FA04F411FA0CF118BF01212143084346
:1007F000A3EB0C01CB1D4FEA00614FEA102042BF72
:10080000002010BC704700EBC35010440029A4BF67
:1008100010BC7047401C490008BF20F0010010BC0C
:10082000704710B5141E73F1000408DA401C41F142
:10083000000192185B411A4301D120F0010010BD64
:100840002DE9F04D92469B4611B1B1FA81F202E0DA
:10085000B0FA80F220329046FFF77BFF04460F4645
:1008600040EA0A0041EA0B0153465A46084313D0B6
:10087000114653EA010019D0C8F140025046FFF773
:1008800077FF05460E46504659464246FFF761FF40
:10089000084305D0012004E020463946BDE8F08D2C
:1008A0000020054346EAE0762C4337430A98630567
:1008B000E40AA0EB08000022FD0A44EA47540A308B
:1008C00002D500200146E9E7010510196941DDE97B
:1008D000084500196941BDE8F04DA2E72DE9F04D4A
:1008E00081EA030404F0004B21F0004514464FF068
:1008F000000A23F0004150EA050220D054EA010228
:100900001DD0C5F30A570246C5F31303C1F3130004
:10091000C1F30A5640F4801543F48013A7EB060890
:10092000101BD64608F2FD3873EB050002D308F120
:10093000010801E092185B41B8F1000F03DA0020D2
:100940000146BDE8F08D00204FF480110646844634
:100950000EE0171B73EB050705D3121B63EB0503B2
:1009600006434CEA010C49084FEA300092185B41FB
:1009700050EA0107EDD152EA030012D082EA0400E6
:1009800083EA0501084305D0101BAB4106D20122C2
:10099000002306E000224FF0004302E06FF0010266
:1009A00053101AEB06004CEB085110EB0A0041EB18
:1009B0000B01BDE8F04DFFF734BF70B521F00043E7
:1009C00003430CD0C1F30A550024D5EB040564EBB6
:1009D0000403D617AD1AB34102DB0020014670BDF7
:1009E000201841EB025170BD30B5041E71F10004B6
:1009F00004DB4FF00044404264EB0101141E73F12C
:100A0000000405DB1C464FF00043524263EB040335
:100A10008B4208BF824230BD064C074D06E0E068BD
:100A200040F0010394E8070098471034AC42F6D335
:100A3000FFF760FB80630008A06300082DE9F04D1C
:100A400000231A461B1A8A4103DB00200146BDE839
:100A5000F08DC1F30A52C1F3130141F480154FF038
:100A6000000BD10702D100186D41521E0027044629
:100A700040F2FF11384601EB620A3E4680460246CC
:100A800000204FF48011FFF773FEC2197141BB18AB
:100A900046EB0100B4EB030C75EB000C04D3E41A35
:100AA00065EB000517460E46241908F101006D415B
:100AB00080463428E3DDF91946EB0600091BA841FE
:100AC00003D24FF0FF32134601E0002213461BEB26
:100AD000070046EB0A51BDE8F04DFFF7A2BE70B526
:100AE0008C1810F8015B15F0070301D110F8013BD9
:100AF0002A1106D110F8012B03E010F8016B01F860
:100B0000016B5B1EF9D12B0705D40023521E0DD4B7
:100B100001F8013BFAE710F8013BCB1A921C03E005
:100B200013F8015B01F8015B521EF9D5A142D8D33D
:100B3000002070BD00BFFEE721B1026842F0010253
:100B4000026004E002684FF6FE731A4002607047CC
:100B50000146486880B2704710B50022026847F627
:100B6000F0739A430C6A8B6823430C6923434C69E6
:100B700023438C692343CC6923434C6A23438C6A07
:100B800023431A430260CB6843600B6883604B6861
:100B9000C36010BD4160704738B5002000906B46BF
:100BA00001227521682003F0B1F803F0C3FBE0B91E
:100BB000782004F099F9782003F08EFAC82004F028
:100BC00045F902F0DBF8094803F00BF9044602F09E
:100BD0002FFB40F2731001F079FFC82002F058FAA1
:100BE00004F046FA012004F02DF838BDAC010020D5
:100BF0007047000010B5034800F050F80248006844
:100C0000804710BDFFFF0F001800002010B50348FB
:100C100000F044F802480068804710BDFFFF0F0055
:100C20001800002010B5034800F038F802480068AA
:100C3000804710BDFFFF0F001800002010B50348CB
:100C400000F02CF802480068804710BDFFFF0F003D
:100C50001800002010B5034800F020F80248006892
:100C6000804710BDFFFF0F001800002010B503489B
:100C700000F014F802480068804710BDFFFF0F0025
:100C80001800002010B5034800F008F8024800687A
:100C9000804710BDFFFF0F001800002001490860C9
:100CA00070470000140401402DE9F0410246002580
:100CB0000026002000230024002791F803C00CF038
:100CC0000F0591F803C00CF0100CBCF1000F03D01D
:100CD00091F802C04CEA050591F800C0BCF1000F84
:100CE00031D0146800202BE04FF0010C0CFA00F317
:100CF000B1F800C00CEA03069E4220D183004FF0F9
:100D00000F0C0CFA03F7BC4305FA03FC4CEA04048D
:100D100091F803C0BCF1280F06D14FF0010C0CFA7A
:100D200000FCC2F814C00AE091F803C0BCF1480FFF
:100D300005D14FF0010C0CFA00FCC2F810C0401CA9
:100D40000828D1D31460B1F800C0BCF1FF0F34DD26
:100D5000546800202EE000F1080C4FF0010808FA5A
:100D60000CF3B1F800C00CEA03069E4221D18300C7
:100D70004FF00F0C0CFA03F7BC4305FA03FC4CEAE6
:100D8000040491F803C0BCF1280F05D100F1080C50
:100D900008FA0CF8C2F8148091F803C0BCF1480FAF
:100DA00007D100F1080C4FF0010808FA0CF8C2F85E
:100DB0001080401C0828CED35460BDE8F0810000AC
:100DC000F0B50A46002300240021002500F000466B
:100DD000B6F1004F02D11D4EF16901E01B4E716862
:100DE000C0F3034583B200F44016B6F5401F08D1A6
:100DF00021F07061154E766826F07066134F7E60A4
:100E000012E000F48016B6F5801F06D1032606FA1C
:100E100005F4A14341F0706106E0460D360103FA86
:100E200006F6B14341F0706122B1460D360103FA76
:100E300006F6314300F00046B6F1004F02D1034EF2
:100E4000F16101E0014E7160F0BD00000000014061
:100E500000BFFEE770B505460E46002400F0EAF834
:100E6000284600F0B5F8641C00F03CF9304600F06C
:100E7000AFF8641C00F036F900F0DCF8691CC8B269
:100E800000F0A6F8641C00F02DF9002000F068F8CE
:100E9000044600F003F9204670BD000010B50020A4
:100EA0000E4908600E48006820F470400C49086044
:100EB0000846006840F44050086000200949C1F825
:100EC000AC01012001F04AFD01200449086001F055
:100ED00045FD00200349C1F8A80110BDA8812142A9
:100EE000040C01400080214208B50121082000F0D7
:100EF0006FFA4FF44060ADF8000010208DF8030049
:100F000003208DF8020069460148FFF7CDFE08BDB9
:100F1000000C014010B500200E4908600E48006822
:100F200020F470400C4908600846006840F44050C6
:100F3000086001200949C1F8AC0101F00FFD012052
:100F40000449086001F00AFD00200449C1F8A80125
:100F500010BD0000A8812142040C01400080214204
:100F600070B5054600241748006820F47040154904
:100F700008600846006840F400400860002616E05B
:100F8000002011490860022001F0E8FC01200F490F
:100F9000C1F8A8016006040E0B487C38006808B14F
:100FA000601CC4B2022001F0D9FC701CC6B2082E2D
:100FB000E6DB15B1FFF772FF01E0FFF7ABFF20465C
:100FC00070BD0000040C0140A88121420080214234
:100FD00070B504461448006820F470401249086057
:100FE0000846006840F44050086000200F4908603F
:100FF000002516E0E0090D49091D08606006040E91
:10100000012001F0ABFC01200949C1F8A80101F061
:10101000A5FC002005490860012001F09FFC681C28
:10102000C5B2082DE6DB70BD040C0140A881214249
:101030000080214210B51648006820F47040144921
:1010400008600846006840F44050086001201149DB
:1010500008601148D0F82C0108B9002010BD01200B
:101060000C49091F086001F079FC00200A49C1F809
:10107000AC0108488038006808B10020EEE7012084
:1010800001F06CFC00200349091F08600120E5E71E
:10109000040C0140AC8121420080214210B50E4871
:1010A000006820F470400C4908600846006840F46D
:1010B000405008600020094908600949C1F8AC01A6
:1010C000012001F04BFC0120044908600449C1F8EB
:1010D000AC0101F043FC10BD040C0140A881214289
:1010E0000080214210B500241548006820F47040AB
:1010F000134908600846006840F400400860012079
:101100001049086001F02AFC01200F49C1F8A8012C
:1011100001F024FC0AE0601CC4B2322C03DDFFF7AE
:10112000BDFF002010BD012001F018FC05488038EB
:1011300000680028EFD10349091F08600120F1E78A
:10114000040C0140AC8121420080214270B505466B
:101150000E46144631462846FFF77CFE20700120DB
:1011600070BDF8B506460F4614461D466A46394618
:101170003046FFF7EBFF2DB10120A0409DF8001095
:10118000084305E00120A0409DF8001021EA00007E
:10119000C0B200909DF800203946304600F036F885
:1011A000F8BD2DE9F8430746884614461D46089EBB
:1011B0006A4641463846FFF7C9FF28B3601CFF2145
:1011C00001FA00F0C4F108012944491EFF220A4136
:1011D000104300F0FF09C5F1080006FA00F0C6B29E
:1011E000C4F1070006419DF8000000EA09000090E4
:1011F0009DF80000304300909DF80020414638469D
:1012000000F004F8BDE8F8830020FBE737B504469A
:101210000D4602AB01222946204600F001F83EBDF2
:101220002DE9F04180460D4616461F460024FFF783
:1012300001FF4046FFF7CCFEFFF754FF2846FFF7BB
:10124000C7FEFFF74FFF00BF06E0385DFFF7C0FEA7
:10125000FFF748FF601CC4B2B442F6DBFFF71EFF85
:101260000120BDE8F08110B5022000F010F8032045
:1012700000F021F8002000F014F8002000F037F80A
:10128000002000F02BF8002000F01FF810BD38B54A
:101290000446032302226B21D0200094FFF781FF34
:1012A00038BD38B50446022304221C21D020009406
:1012B000FFF777FF38BD38B50446022304221B210F
:1012C000D0200094FFF76DFF38BD10B504462346CB
:1012D00001223721D020FFF744FF10BD10B504468E
:1012E000234605226A21D020FFF73BFF10BD10B531
:1012F0000446234606226B21D020FFF732FF10BDA3
:1013000000BFFEE77047000070B5002100230F22E8
:10131000C47804B3154C246804F4E064C4F5E064B4
:10132000210AC1F10403CA40447804FA03F1847825
:101330001440214309010E4C0678A155047804F0AD
:101340001F050124AC4005786D11AD0005F1E025C5
:10135000C5F8004109E0047804F01F050124AC4001
:10136000044D0678761145F8264070BD0CED00E07E
:1013700000E400E080E100E002490143024A11601C
:10138000704700000000FA050CED00E07047000017
:1013900029B1064A52690243044B5A6104E0034AE8
:1013A00052698243014B5A617047000000100240AD
:1013B00029B1064AD2690243044BDA6104E0034AC8
:1013C000D2698243014BDA6170470000001002408D
:1013D00029B1064A92690243044B9A6104E0034A28
:1013E00092698243014B9A617047000000100240ED
:1013F00030B500210022002400232D4D6D6805F03A
:101400000C0121B1042905D0082923D105E0294D7B
:10141000056022E0274D05601FE0254D6D6805F44D
:101420007012234D6D6805F48034022505EB92425D
:101430001CB9214D554305600BE01D4D6D6805F449
:1014400000351DB11C4D5543056002E0194D554353
:10145000056002E0174D056000BF00BF144D6D68C8
:1014600005F0F0010909154D6B5C0568DD4045602C
:101470000F4D6D6805F4E061090A104D6B5C45681D
:10148000DD4085600A4D6D6805F46051C90A0B4D59
:101490006B5C4568DD40C560054D6D6805F44041F5
:1014A000890B074D6B5CC568B5FBF3F5056130BD75
:1014B0000010024000127A0000093D0000000020E8
:1014C000100000202DE9F04F8FB00CA889490DAB1A
:1014D00008AACDE900108849884801F05BFC8548DE
:1014E000008800F4807000287ED00898FFF74DF83F
:1014F00004464FF09D41FEF7F1FE814908600998CE
:10150000FFF743F804464FF09D41FEF7E7FE7D49A3
:1015100008600A98FFF739F804464FF09D41FEF73E
:10152000DDFE794908600B98FFF72FF804464FF06D
:101530009D41FEF7D3FE75490860714801684FF080
:101540008040FEF799FE06906F4801680698FEF706
:1015500093FE82466B4801684FF04040FEF78CFED8
:1015600006906A4801680698FEF786FE8346514653
:10157000FEF72AFE0790FFF762F8804600F05EFE55
:1015800006464FF06632624BFEF78DFF0446FFF7CA
:1015900069F8604908605C4801684FF08040FEF7D8
:1015A0006BFE0390584801680398FEF765FE82467B
:1015B000544801684FF04040FEF75EFE03905148EA
:1015C00001680398FEF758FE83465146FEF74EFE2B
:1015D00081464FF07E51FEF7F7FD0446FFF72FF8E6
:1015E000CDE90401464800E081E001684FF0804009
:1015F000FEF742FE8346434801685846FEF73CFE2C
:101600008146414801684FF08040FEF735FE834631
:101610003E4801685846FEF72FFE82464946FEF7CF
:10162000D3FD0446FFF70BF80746DDE9042301F07C
:101630004DF84FF06632364BCDE90601FEF733FF29
:101640000546FFF70FF83449086030480168006824
:10165000FEF712FE03902C4801680068FEF70CFEAE
:101660000290284801680068FEF706FE8346244879
:1016700001680068FEF700FE59460190FEF7A4FDE0
:1016800082460299FEF7F2FD81460399FEF7EEFDD0
:101690000446FEF7D4FFCDE904011C480168184850
:1016A0000068FEF7E9FD82461748016815480068A2
:1016B000FEF7E2FD83465146FEF786FD81464FF078
:1016C0008041FEF7D9FD0446FEF7B9FF0746DDE984
:1016D000042300F0FBFF4FF066320D4BCDE906010D
:1016E000FEF7E1FE0546FEF7BDFF0C4908600FB0AE
:1016F000BDE8F08F8C0100208601002080010020D1
:101700009C010020A0010020A4010020A8010020CD
:1017100066A64C4090010020940100209801002012
:10172000704710B500F002F810BD00000CB50020A5
:10173000019000903348006840F4803031490860DF
:1017400000BF3048006800F4003000900198401C51
:101750000190009818B90198B0F5A06FF1D129480F
:10176000006800F4003010B10120009001E000207A
:1017700000900098012843D12348006840F01000F1
:10178000214908600846006820F003000860084608
:10179000006840F0020008601A4840681949486033
:1017A0000846406848600846406840F480604860E9
:1017B0000846406820F47C1048600846406840F4C1
:1017C000E81048600846006840F08070086000BF7C
:1017D0000C48006800F000700028F9D00948406803
:1017E00020F00300074948600846406840F00200C6
:1017F000486000BF0348406800F00C000828F9D199
:101800000CBD00000010024000200240042808D156
:101810004FF0E021096941F004014FF0E02211612D
:1018200007E04FF0E021096921F004014FF0E022C8
:10183000116170477047000010B51348006840F010
:1018400001001149086008464068104908400E49E7
:101850004860084600680E4908400B490860084681
:10186000006820F4802008600846406820F4FE00EC
:1018700048604FF41F008860FFF753FF4FF000608F
:101880000449086010BD0000001002400000FFF88D
:10189000FFFFF6FE08ED00E021B1028842F0800271
:1018A000028004E002884FF67F731A40028070477E
:1018B00021B1028842F00102028004E002884FF662
:1018C000FE731A400280704770B500240022002386
:1018D000058C4FF6FE7635400584028C8388048B98
:1018E0004FF68F752C40B51E2C400D882C43751E6D
:1018F0002A400D892A434D882A43144DA8420BD013
:10190000134DA84208D0134DA84205D0124DA8424D
:1019100002D0124DA84213D14FF6F7752A404D89D7
:101920002A434FF6FB752A408D882A434FF6FF6500
:101930002B404FF6FF552B408D892B43CD892B43F0
:1019400083800483CD888586028470BD002C01408D
:101950000034014000400140004401400048014083
:101960000A460021018B4FF6F7731940114301839A
:101970007047000070B5002400220023058C4FF64C
:10198000EF7635400584028C8388048B48F6FF751A
:101990002C404FF6FF452C400D884FF6FF7606EAA7
:1019A00005252C434FF6DF752A400D8906EA0515FB
:1019B0002A434D8806EA05152A43154DA84202D050
:1019C000144DA8421DD14FF67F752A404D894FF620
:1019D000FF7606EA05152A434FF6BF752A408D8823
:1019E00006EA05152A434FF6FF352B404FF2FF75E7
:1019F0002B408D8906EA85052B43CD8906EA8505AE
:101A00002B4383800483CD880587028470BD00004A
:101A1000002C0140003401400A460021018B4FF2A6
:101A2000FF7319404FF6FF7303EA02231943018342
:101A30007047000070B5002400220023058C4FF68B
:101A4000FF6635400584028C8388848B4FF68F7542
:101A50002C404FF6FC752C400D882C434FF6FF555B
:101A60002A400D894FF6FF7606EA05252A434D8860
:101A700006EA05252A43154DA84202D0144DA84276
:101A80001DD14FF2FF752A404D894FF6FF7606EAC9
:101A900005252A434FF6FF352A408D8806EA05259D
:101AA0002A434EF6FF752B404DF6FF752B408D896E
:101AB00006EA05152B43CD8906EA05152B438380DD
:101AC0008483CD888587028470BD0000002C01408E
:101AD000003401400A460021818B4FF6F77319400C
:101AE000114381837047000070B500220023002459
:101AF000058C4EF6FF7635400584038C8488828BF6
:101B000048F6FF752A404FF6FF452A400D884FF6EC
:101B1000FF7606EA05252A434DF6FF752B400D8911
:101B200006EA05352B434D8806EA05352B430B4D58
:101B3000A84202D00A4DA84208D14BF6FF752C40AE
:101B40008D894FF6FF7606EA85152C4384808283C3
:101B5000CD88A0F84050038470BD0000002C0140E7
:101B6000003401400A460021818B4FF2FF73194077
:101B70004FF6FF7303EA022319438183704781867E
:101B800070470187704781877047A0F84010704701
:101B9000002202881D4B98420ED01D4B98420BD05C
:101BA000B0F1804F08D01B4B984205D01A4B984299
:101BB00002D01A4B984204D14FF68F731A404B88CB
:101BC0001A43174B984207D0164B984204D04FF651
:101BD000FF431A40CB881A4302808B8883850B8889
:101BE00003850A4B98420BD0094B984208D00E4B04
:101BF000984205D00D4B984202D00D4B984201D12E
:101C00000B7A03860123838270470000002C014079
:101C1000003401400004004000080040000C004077
:101C2000001000400014004000400140004401400A
:101C30000048014010B5012000F002F910BD10B5B8
:101C4000022000F0FDF810BD10B5032000F0F8F8F8
:101C500010BD10B50022002340F66A14A14200D145
:101C600000BF0A1201249440A3B2DC43048010BDDB
:101C700021B1828942F40052828104E082894DF6CA
:101C8000FF731A40828170471AB1838A0B438382A3
:101C900002E0838A8B438382704702460020B1F5BD
:101CA000007F00D100BF13880B400BB1012000E082
:101CB0000020704770B50246002400230025002054
:101CC00040F66A16B14200D100BFC1F3421501F0DF
:101CD0001F03012606FA03F3012D02D19689334032
:101CE00006E0022D02D1168A334001E0968A334085
:101CF0000C12012606FA04F41688344013B10CB114
:101D0000012000E0002070BDF0B50346002400264D
:101D10000025002040F66A17B94200D100BF1846DE
:101D2000C1F3421401F01F06012707FA06F5012C42
:101D300001D10C3004E0022C01D1103000E014304D
:101D40001AB107682F43076002E00768AF430760D6
:101D5000F0BD00002DE9F04786B005460E46002490
:101D6000A24600BFA1460027B08900B100BF2F46A0
:101D70002C8A4CF6FF700440F08804432C82AC8916
:101D80004EF6F3100440B088318908437189084346
:101D90000443AC81AC8A4FF6FF400440B089044351
:101DA000AC8201A8FFF724FB1F48874202D1DDF86F
:101DB00010A001E0DDF80CA0A88900F4004040B1BB
:101DC0000AEBCA0000EB0A1031684900B0FBF1F8D9
:101DD00007E00AEBCA0000EB0A1031688900B0FB8B
:101DE000F1F86420B8FBF0F004012009642101FB44
:101DF0001089A88900F4004040B1322000EBC900EE
:101E0000B0FBF1F000F00700044308E0322000EBE3
:101E100009106421B0FBF1F000F00F0004432C81A5
:101E200006B0BDE8F0870000003801400146888810
:101E3000C0F308007047C1F30802828070470000B9
:101E400070B5044600260025641E254951F824007B
:101E500040F22441FFF72EFF002840D0204951F8DE
:101E60002400FFF7E3FF1F4951F824000021FEF78B
:101E700063FE1C4951F82400FEF76AFEC0F1C80059
:101E8000C6B2194850F82400066000BF0DE004EB0C
:101E9000C40000EB0410154901EBC000405D14497B
:101EA00051F824104855681C85B2B54204DA11482F
:101EB00050F82400A842EAD8094951F8240040F219
:101EC0002441FFF7C6FE074951F82400C821FEF758
:101ED00061FE044951F824000121FEF72DFE70BD7A
:101EE0001C000020D800002024060020D80100207B
:101EF000FC0500201006002000BFFEE70FB4054BD4
:101F000010B503A9044A029800F09AF810BC5DF8D5
:101F100014FB000045360008BC010020490050EACF
:101F2000C12018BF04204A0D18BF40F0010040F244
:101F3000FF72B2EB515F08BF40F00200012808BFFA
:101F4000052070472DE9F0414F1E00EBC701044604
:101F5000D1E9000115461E4637F006020DD02A468B
:101F60003346FEF7A0FA7F1E04EBC703D3E9002334
:101F7000FEF7F2F937F00602F1D1022F25D0042F37
:101F800013D0062F18BFBDE8F0812A463346FEF76E
:101F90008AFAD4E90A23FEF7DFF92A463346FEF728
:101FA00082FAD4E90823FEF7D7F92A463346FEF72A
:101FB0007AFAD4E90623FEF7CFF92A463346FEF72C
:101FC00072FAD4E90423FEF7C7F92A463346FEF72E
:101FD0006AFAD4E90223FEF7BFF92A463346FEF730
:101FE00062FAD4E90023BDE8F041FEF7B5B9012259
:101FF000FEF7E3BCFEF7B0B90022134610461146C7
:10200000FEF76CBC024A00201107FEF7D6BC0000A8
:1020100001FDFFFF02E008C8121F08C1002AFAD123
:1020200070477047002001E001C1121F002AFBD158
:10203000704700000149086070470000C00100209F
:102040002DE9FF4F89B09B460446002506E0252870
:102050000BD05A460B999047641C6D1C20780028C1
:10206000F5D10DB02846BDE8F08F0027B846012213
:10207000474900E0074314F8013F203B02FA03F010
:102080000842F7D120782E2819D114F8010F47F013
:1020900004072A280ED06FF02F022078A0F130011B
:1020A00009290CD808EB880102EB410100EB01087B
:1020B000641CF2E70A98641C50F8048B0A9020789C
:1020C0000028CED0642808D0692806D075281ED0F4
:1020D0005A460B9990476D1C58E00A994FF00A092F
:1020E00001C90A91002802DA40422D2102E0390597
:1020F00004D52B218DF82010012103E0F90704D02D
:102100002021F7E78A4608AE0DE00021FAE70A9998
:102110004FF00A0901C90A91F7E74946FEF7D2FADA
:10212000303106F8011D0028F7D1ADEB060000F1B3
:102130002009780701D44FF00108C84502DDA8EB5B
:10214000090000E000208046002706E008A85A4663
:10215000C05D0B9990476D1C7F1C5745F6DB04E072
:1021600030205A460B9990476D1CB8F10001A8F138
:102170000108F5DC05E016F8010B5A460B9990476B
:102180006D1CB9F10001A9F10109F4DC641C65E7DB
:10219000092801002DE9FE4F06460F460025684636
:1021A00001F062FA002442E056F8240057F82410A7
:1021B000A0EB010ABAF1000F01DB514601E0CAF1C0
:1021C00000010846FEF7E1F983464FF08F41FEF724
:1021D00085F880465DF824000021FEF75FFA16D0EE
:1021E0005DF824104046FEF779F882464FF07E51A4
:1021F000FEF73CF8814629F0004A0F48416A5046F4
:10220000FEF756FA12D20120A04005430EE00A481C
:10221000C1694046FEF742FA05D30748016A4046C5
:10222000FEF746FA02D20120A0400543641C032CAD
:10223000BADB2846BDE8FE8F705600082DE9F04D48
:102240008D4F21F0004A86B005460C46BA452ADB80
:10225000AAEB070028430AD08848824501DC1AD13E
:10226000CDB106B02846BDE8F04DFFF7C0BE844AA8
:10227000844B2846FEF717F907460E46824A834BE1
:1022800028462146FEF70FF906B03A463346BDE828
:10229000F04DFEF761B80120FFF7CCFE06B0BDE8B7
:1022A000F04DFFF7A9BE7A48824542DABAF1795F6C
:1022B0000BDA2846FFF732FE042808BFFFF7A2FE1C
:1022C000284606B02146BDE8F08D2A460B4610464A
:1022D000FEF7E9F8834602466E480E460B46062195
:1022E0007844FFF72FFE5A463346FEF7DCF8804667
:1022F00069488A465A46334604217844FFF722FE4D
:102300005A463346FEF7CFF800223B46FEF724F844
:1023100002460B4640465146FEF7E0FA2A4623465F
:10232000FEF7C1F806B02A462346BDE8F04DFEF799
:1023300013B8284624F0004100223D463B46FEF7F4
:10234000AFF84FF0FF32FEF738FB0646024653481F
:102350000F460B4606217844FFF7F4FD32463B4614
:10236000FEF7A1F8CDE900014D4832463B46042175
:102370007844FFF7E7FD32463B46FEF794F800222B
:102380002B46FDF7E9FF834602913046394602F0BD
:10239000FFFE804643480D46504517DCDDE900014D
:1023A0005A46029BFEF79AFA42462B46FEF77BF806
:1023B00042462B46FDF7D0FF0122FEF7FEFA304AD7
:1023C000304BFEF76AF8304A304B4CE04FF0000AD1
:1023D00052460B464046FDF7BFFFCDE9031052467B
:1023E0002B4610461946FEF75EF832463B46FEF78E
:1023F00057F8DDE90332FEF771FA06460F46DDE9CC
:1024000000015A46029BFEF769FA834600910122B9
:1024100030463946FEF7D1FA194A1A4BFEF740F812
:1024200006460F46012240462946FEF7C6FA5A469E
:10243000009BFEF738F832463B46FEF72EF806467C
:102440000F46012250462946FEF7B7FA0E4DDFF837
:1024500058802A464346FEF723F832463B46FEF7AD
:102460001FF82A464346FEF71BF8002CD8BF81F020
:10247000004106B0BDE8F08D0000F03F0000F07FA5
:10248000075C143326A6913C182D4454FB21F93FD8
:102490000000E03FAC3F0000C23F0000363F0000BC
:1024A0004C3F00003333EF3FFB21E93F2DE9F84F6C
:1024B00004460D4621F0004000917349814211DC31
:1024C0007249884201DC06D12CB120462946BDE87C
:1024D000F84FFFF78CBD6E48002DCCBF6D496E499B
:1024E000BDE8F88F6D49814211DD6D498142D8BF49
:1024F0004FF0FF366DDD20462946FFF70FFD04281B
:1025000008BFFFF77FFD20462946BDE8F88F6549E3
:10251000654F25F00045814233DD6449814219DD74
:10252000002632464FF0804320462946FDF714FF2F
:1025300080468A46012220462946FEF73EFA0022BE
:102540003B46FDF7AAFF42465346FEF7C7F904464D
:102550000D463EE001260022BA463B46204629466B
:10256000FDF7FAFE80460F460022534620462946D4
:10257000FDF793FF42463B46FEF7B0F904460D4691
:1025800027E04B4981421BDDDFF828A1022600220B
:10259000534620462946FDF786FF00223B46FDF7BD
:1025A000DBFE80460F460022534620462946FDF7B3
:1025B00074FF42463B46FEF791F904460D4608E09B
:1025C000032622462B4600203B49FEF787F90446A6
:1025D0000D4622462B4610461946FDF764FF8B46F2
:1025E000824602460B46FDF75EFF07460246334829
:1025F00088460B4606217844FFF7A4FC52465B460A
:10260000FDF751FF82462E488B463A464346052148
:102610007844FFF797FC3A464346FDF744FF0246ED
:102620000B46002E504659460CDAFDF795FE224621
:102630002B46FDF738FF01B022462B46BDE8F04F90
:10264000FDF72EBFFDF788FE22462B46FDF72BFF38
:102650001C4A7A4402EBC603D3E90023FDF71DFFB1
:1026600022462B46FDF719FF174A7A4402EBC603B0
:10267000D3E90023FDF714FF009A002AB8BF81F0C8
:102680000041BDE8F88F0000000010440000F07F1A
:10269000182D4454FB21F93FFB21F9BF0000DC3F1A
:1026A0000000203E0000F33F0000F03F0000E63F46
:1026B000008003400000F83F0000F0BF4E3D0000E6
:1026C0000C3D0000AA3C0000723C00002DE9F04DDA
:1026D0009446CCF1000423F000464CEA0404594F20
:1026E00046EAD4749A46884621F00042BC4206D895
:1026F000454240EA050442EAD474BC4204D9BDE82C
:10270000F04D6246FFF776BCAAF14055A5F17F6512
:1027100055EA0C040BD0022404EAAA744A4DDFF8EF
:102720002CE144EAD87452EA000B04D00CE0BDE876
:10273000F04DFFF7BBBE002C14BF012CBDE8F08D9F
:10274000022C30D0032C32D056EA0C0B0AD0BE42F9
:1027500020D1BA4209D126F0804622F08042334689
:10276000114617E000291ADB25E0DFF8E4B0FB444E
:10277000002C04BFDBE90001BDE8F08D012C02BF95
:10278000DBE9000181F00041BDE8F08D022C0AD0A8
:10279000032C0CD0BA4212D1B8F1000F0BDA2A4840
:1027A0002C49BDE8F08D28462B49BDE8F08D284620
:1027B0007146BDE8F08D24482849BDE8F08D921B94
:1027C00012153C2AC4BF204F244E10DCBAF1000F72
:1027D000BEBF12F13C0F00273E4608DB6246FEF703
:1027E0007DF821F00041FFF761FE07460E4694B1E7
:1027F000012C08BF86F000460DD0194A194B022C57
:102800003846314615D0FDF748FE2A46BDE8F04D62
:10281000114BFDF742BE0022134638463146FEF703
:10282000E3F804BF0220FFF705FC38463146BDE857
:10283000F08DFDF732FE2A46BDE8F04D064BFDF760
:102840002FBE00000000F07F182D4454FB2109C06A
:10285000063C0000FB21F9BFFB210940FB21F93FA9
:10286000075C143326A6A13C2DE9F0410446E0782C
:1028700000F0C006E07800F03F05607800F001004D
:1028800098B1EF102846E91705EB5171C910A5EB77
:10289000C101491C01F0FF080B48006820B10A483B
:1028A000414602683846904700BF607800F0080053
:1028B00030B10548406818B1B011034A51688847E3
:1028C0000020BDE8F08100003C0C002010B56FF046
:1028D0000400FEF79BFF0A4800680A49B0FBF1F0CC
:1028E000094908700846007800EB4001C1EBC010B0
:1028F0004FF6FF7101EAC0000449088010BD0000D6
:102900004001002000127A00140000201600002070
:102910000146114A12884A434FF0E0235A610022CF
:102920009A611A46126942F001021A6100BF4FF023
:10293000E022106900F001021AB100F48032002A8E
:10294000F5D04FF0E022126922F001024FF0E023AF
:102950001A6100229A617047160000200146114A50
:1029600012784A434FF0E0235A6100229A611A46D6
:10297000126942F001021A6100BF4FF0E0221069B3
:1029800000F001021AB100F48032002AF5D04FF0B5
:10299000E022126922F001024FF0E0231A610022C6
:1029A0009A6170471400002010B58CB00446194994
:1029B00051F824000121FEF7EBFC04EBC40000EB0E
:1029C0000410154901EBC0000290144850F824008F
:1029D000001D019000200390C82004900020089062
:1029E0008020069000200790059009904FF4005039
:1029F0000A9000200B900A4951F8240001A9FEF723
:102A0000ABF8074951F824000121FEF795F80CB006
:102A100010BD0000B0000020D80100201C000020E4
:102A2000D800002010B58CB00446154951F8240098
:102A30000121FEF7ADFC134850F824000290124823
:102A400050F82400001D01901020039000200490F5
:102A500008908020069000200790059009900A9029
:102A60000B900A4951F8240001A9FEF775F80749AF
:102A700051F824000121FEF75FF80CB010BD0000F2
:102A8000B0000020D40500201C000020C40000205D
:102A900038B5044664B120208DF8000028208DF858
:102AA000010030208DF8020038208DF8030004E08A
:102AB000A32204216846FDF768FB6A46042140F61C
:102AC0009E2002F079FA01F069FE38BD3EB5044659
:102AD00002208DF80000CA208DF80100E3208DF857
:102AE000020009208DF803006A460421682002F0E4
:102AF00063FAA3208DF8000004F0400048B1C02024
:102B00008DF80100C8208DF80200C2208DF8030066
:102B100006E0A3208DF801008DF802008DF8030077
:102B200004F4C07048B1C4208DF80400CC208DF8A6
:102B30000500C6208DF8060006E0A3208DF80400ED
:102B40008DF805008DF80600A3208DF807008DF89C
:102B500008008DF809006A460A2140F6A72002F015
:102B60002BFA04F0030018B120208DF8000002E0D9
:102B7000D8208DF800006A46012140F6B62002F008
:102B80001BFA04F0200018B1012000F0ADF802E0BB
:102B9000002000F0A9F804F4C07008B304F48070B9
:102BA00060B1B2208DF800008B208DF80100B620B6
:102BB0008DF802009B208DF803000BE0B0208DF80B
:102BC000000080208DF80100B4208DF802009020D4
:102BD0008DF803006A46042140F6A22002F0ECF9C9
:102BE00004F0010020B3F8208DF800006A460121AE
:102BF0004FF40B6002F0E0F9FA21072000F02CFC02
:102C0000072000F0F3FB012000F013FC642000F02B
:102C1000F3FC4FF4FA7000F002FDC821304800F0D8
:102C2000A3FB282000F0BCFB0A2000F0CCFB08E04E
:102C3000D8208DF800006A4601214FF40B6002F0A5
:102C4000BBF904F0020018B1D9208DF8000002E0B1
:102C5000D8208DF800006A46012140F23D7002F054
:102C6000ABF904F0040018B1012000F069F802E0AB
:102C7000002000F065F804F0100018B10120FFF703
:102C800007FF02E00020FFF703FF44F008001549AA
:102C9000488101F083FD00201249887304F0400050
:102CA00018B10846807B801D887304F4C07020B181
:102CB0000C48807B801D0B49887304F0140020B100
:102CC0000848807B10300749887304F0030020B166
:102CD0000448807B001D0349887300203EBD00002E
:102CE00009E3CA023C0C00203EB504466CB10EA1BB
:102CF000D1E900208968CDE9002002916A460921C6
:102D00004FF4976002F058F93EBD0AA2D2E90010D4
:102D10009268CDE9010200916A4609214FF497605B
:102D200002F04AF9F0E70000B8AAB38DB4980D3567
:102D30005D000000B8AAAAAAB088C3C5C7000000F9
:102D400038B5044664B1C0208DF80000C2208DF86B
:102D50000100C4208DF80200C6208DF8030004E0B5
:102D60008B2204216846FDF710FA6A46042140F6DA
:102D7000982002F021F901F011FD38BD10B5C823EB
:102D80004FF48062024940F6F63001F09BFB10BD23
:102D9000985600082DE9F04F8DB007468846154635
:102DA0009946DDE9166B0024002030806B49887B52
:102DB0005A4605A901F052FC18B1601E0DB0BDE8DD
:102DC000F08F6648807A00F01400002867D09DF8E4
:102DD000140000069DF8151040EA01409DF81610F9
:102DE00040EA01209DF81710084328609DF818005C
:102DF00000069DF8191040EA01409DF81A1040EABB
:102E000001209DF81B10084368609DF81C00000617
:102E10009DF81D1040EA01409DF81E1040EA012077
:102E20009DF81F100843A8609DF8200000069DF83B
:102E3000211040EA01409DF8221040EA01209DF84F
:102E400023100843E86004F11000C4B2286800149D
:102E50000190686800140290A86800140390E86864
:102E60000014049001984043029901FB010003996A
:102E700001FB0100049901FB010ABAF1706F02DB4A
:102E8000BAF1885F05DD01F089FC00203080401E2A
:102E900094E7B6F9000040F48070308000BF2F48FE
:102EA000807A00F0400020B305A9601C085C095D31
:102EB00040EA012000B2A8F8000005A9E01C095C66
:102EC00005AAA01C105C41EA002000B2A8F802008C
:102ED00005A9601D095C201D105C41EA002000B2BC
:102EE000A8F80400A01DC4B2B6F9000040F0080024
:102EF00030801A48408900F4C07008B305A9601CEE
:102F0000085C095D40EA012000B2388005A9E01C98
:102F1000095C05AAA01C105C41EA002000B2788080
:102F200005A9601D095C201D105C41EA002000B26B
:102F3000B880A01DC4B2B6F9000040F07000308027
:102F40000648807A00F0030018B105A90819FFF7B8
:102F50008BFC484602F070F800202FE73C0C002064
:102F600070B588B0064601A801F014F9BDF8040058
:102F70000021C90341EA5045C4034448007A00F0E7
:102F8000030056F8200005904048007A00F0040045
:102F900010B10598404205903C48007AC0F3C1004A
:102FA00056F8200006903948007A00F0200010B151
:102FB0000698404206903548007AC0F3811056F8D2
:102FC000200007903148008900F4807010B1079804
:102FD000404207900598C117A0FB042301FB043170
:102FE00000FB0510810041EA927005900698C11718
:102FF000A0FB042301FB043100FB0510810041EA22
:10300000927006900798C117A0FB042301FB0431BE
:1030100000FB0510810041EA927007900598000EB0
:103020008DF808000598000C8DF809000598000A35
:103030008DF80A000598C0B28DF80B000698000EB6
:103040008DF80C000698000C8DF80D000698000A0B
:103050008DF80E000698C0B28DF80F000798000E8C
:103060008DF810000798000C8DF811000798000AE1
:103070008DF812000798C0B28DF8130002AA0C2137
:103080004FF4257001F098FF08B070BD3C0C002093
:1030900030B585B0044616A207CA02AB07C3C82CD8
:1030A00003DD4FF0FF3005B030BDC82090FBF4F0D9
:1030B000401E85B2280A8DF80000E8B28DF80100A4
:1030C0006A46022140F2162001F076FF10B14FF05F
:1030D000FF30E8E702AA0C2140F6C12001F06CFFA6
:1030E00010B14FF0FF30DEE7044884810020DAE7BA
:1030F000FEF2ABC4AAF1DFDFBBAFDFDF3C0C002088
:103100001FB504464848007A00F0030054F8200038
:1031100001904548007A00F0040010B10198404247
:1031200001904148007AC0F3C10054F82000029099
:103130003D48007A00F0200010B102984042029011
:103140003948007AC0F3811054F8200003903648C3
:10315000008900F4807010B1039840420390334915
:10316000019880FB0101800F40EA810001902F4906
:10317000029880FB0110820042EA917002902B4974
:10318000039880FB0110820042EA9170039001983D
:10319000000E8DF800000198000C8DF801000198D8
:1031A000000A8DF802000198C0B28DF803006A464B
:1031B00004214FF4747001F0FFFE18B14FF0FF309E
:1031C00004B010BD0298000E8DF800000298000CAB
:1031D0008DF801000298000A8DF802000298C0B232
:1031E0008DF803006A4604214FF4757001F0E4FE87
:1031F00010B14FF0FF30E3E70398000E8DF80000A8
:103200000398000C8DF801000398000A8DF8020065
:103210000398C0B28DF803006A4604214FF476701B
:1032200001F0CAFECCE700003C0C002009E3CA0212
:1032300010B586B0044647A00068039046A0006819
:10324000029046A00068019045A00068009004F03C
:10325000030003A9085C8DF8140003A8C4F3C1019E
:10326000405C8DF8150003A8C4F38111405C8DF813
:10327000160004F0030002A9085C8DF8100002A8F3
:10328000C4F3C101405C8DF8110002A8C4F38111A0
:10329000405C8DF8120005AA032140F2264001F09F
:1032A0008BFE18B14FF0FF3006B010BD04AA032109
:1032B00040F22A4001F080FE10B14FF0FF30F3E7FA
:1032C000019805900098049004F0040058B19DF80E
:1032D000140040F001008DF814009DF8100040F03B
:1032E00001008DF8100004F0200058B19DF8150081
:1032F00040F001008DF815009DF8110040F001002C
:103300008DF8110004F4807058B19DF8160040F05B
:1033100001008DF816009DF8120040F001008DF8B4
:10332000120005AA03214FF4886001F045FE10B198
:103330004FF0FF30B8E704AA032140F2314001F01A
:103340003BFE10B14FF0FF30AEE70648048100208D
:10335000AAE700004CCD6C000CC92C003656760054
:10336000264666003C0C0020F8B505460E464FF494
:103370007A7095FBF0F000FB06F4200E8DF800004B
:10338000200C8DF80100200A8DF80200E0B28DF8C3
:1033900003006A4604214FF4AE7001F00DFEF8BD43
:1033A00038B50446052094FBF0F084B220128DF865
:1033B0000000E0B28DF801006A4602214FF4AD70C2
:1033C00001F0FAFD38BD38B50446052094FBF0F055
:1033D00084B220128DF80000E0B28DF801006A4638
:1033E00002214FF4AC7001F0E7FD38BD38B504465A
:1033F0000020009004F0010020B19DF8000040F092
:103400003000009004F0020020B19DF8000040F070
:103410000C00009004F0040020B19DF8000040F082
:10342000030000906A4601214FF4A47001F0C4FD2E
:1034300038BD38B50446012C01DA012402E0042C21
:1034400000DD0424601EC0B200906A46012140F2F3
:103450004F1001F0B1FD38BD2DE9FC4706460F467F
:1034600006F0070010B1B7F5C86F03DD4FF0FF306D
:10347000BDE8FC873846FDF791F881465949FCF7CD
:103480002DFF8046684600F05FFE9DF80000022890
:1034900006D0042816D0082826D0102848D135E0B8
:1034A0004FF08D414046FCF7E7FE8146FDF794F86A
:1034B00084B24D494046FCF7DFFE8146FDF78CF8AB
:1034C00085B238E04FF08C414046FCF7D5FE81468E
:1034D000FDF782F884B245494046FCF7CDFE8146AF
:1034E000FDF77AF885B226E04FF08B414046FCF7B5
:1034F000C3FE8146FDF770F884B23D494046FCF7B3
:10350000BBFE8146FDF768F885B214E04FF08A41B2
:103510004046FCF7B1FE8146FDF75EF884B23549BE
:103520004046FCF7A9FE8146FDF756F885B202E059
:103530004FF0FF309CE700BF20128DF80400E0B28E
:103540008DF8050028128DF80600E8B28DF8070006
:1035500006F00100A0B101AA02214FF4EA7001F0C7
:103560002BFD10B14FF0FF3082E70DF10602022172
:103570004FF4927001F020FD10B14FF0FF3077E76B
:1035800006F00200A0B101AA02214FF4EC7001F094
:1035900013FD10B14FF0FF306AE70DF10602022172
:1035A0004FF4947001F008FD10B14FF0FF305FE769
:1035B00006F00400A0B101AA02214FF4EE7001F060
:1035C000FBFC10B14FF0FF3052E70DF10602022173
:1035D0004FF4967001F0F0FC10B14FF0FF3047E768
:1035E000002045E700004843000040460000C04579
:1035F000000040450000C04438B50446052094FB57
:10360000F0F085B228128DF80000E8B28DF80100C4
:103610006A4602214FF4EF7001F0CEFC38BD38B598
:103620000446052094FBF0F085B228128DF80000C6
:10363000E8B28DF801006A4602214FF4ED7001F006
:10364000BBFC38BD70B504460D46E1B20548FEF737
:10365000F2FB00BF40210348FEF71FFB0028F9D012
:10366000204670BD003801407CB5054628494968B0
:10367000087801AB04220D2100F048FB08B10720B7
:103680007CBD9DF80700C0F301109DF8041001F007
:10369000E00140EAE1008DF800009DF80700C0F36A
:1036A00081009DF8051001F0E00140EAE1008DF88D
:1036B00001009DF8070000F003009DF8061001F0DE
:1036C000E00140EAE1008DF8020000241CE01DF852
:1036D000040018B9002045F8240013E00D4845F80F
:1036E000240006E055F824000B49FCF7C5FD45F819
:1036F00024001DF80400401EC0B20DF8040000288C
:10370000F0D100BF601CC4B2032CE0DB0020B7E79F
:10371000540100207B14AE3E1D5A843F2DE9F04F2A
:1037200087B005460C46914601208DF81000002018
:103730008DF81100FE4A1268917CFD4A526810789B
:1037400004AB022200F01DFB20B14FF0FF3007B0A8
:10375000BDE8F08FC820FFF7DBF800208DF81000DF
:10376000F34A1268D17BF24A5268107804AB012206
:1037700000F007FB10B14FF0FF30E8E7EC4A1268A9
:103780005179EB4A5268107804AB012200F0F9FA43
:1037900010B14FF0FF30DAE7E54A1268917CE44A55
:1037A0005268107804AB012200F0EBFA10B14FF030
:1037B000FF30CCE7DE4A1268D17DDD4A52681078CE
:1037C00004AB012200F0DDFA10B14FF0FF30BEE78C
:1037D000D74A12681179D64A5268107804AB012290
:1037E00000F0CFFA10B14FF0FF30B0E70C208DF8A9
:1037F0001000CF4A12681179CD4A5268107804AB94
:10380000012200F0BEFA10B14FF0FF309FE70F2009
:10381000FFF77EF8C648806A407A8DF81000C44AE7
:1038200012689178C24A5268107804AB012200F005
:10383000A8FA10B14FF0FF3089E7BD48806A007ADE
:103840008DF81000BA4A12685178B94A5268107857
:1038500004AB012200F095FA10B14FF0FF3076E78B
:10386000B9F1000F07D0B248806A807A40F0E000DA
:103870008DF8100004E0AE48806A807A8DF8100060
:10388000AB4A12689179AA4A5268107804AB0122B7
:1038900000F077FA10B14FF0FF3058E7B9F1000FA0
:1038A00007D0A348806AC07A40F0E0008DF810008D
:1038B00003E0A048C07A8DF810009D4A1268D179C3
:1038C0009B4A5268107804AB012200F05AFA10B1FA
:1038D0004FF0FF303BE7B9F1000F02D0C820FFF7EF
:1038E00017F840208DF81000914A12681179904A1B
:1038F0005268107804AB012200F043FA10B14FF087
:10390000FF3024E778208DF81000894A1268517939
:10391000874A5268107804AB012200F032FA10B1E5
:103920004FF0FF3013E783498889FEF7F1FF00204D
:103930008DF810007E4A126851797D4A52681078DD
:1039400004AB012200F01DFA10B14FF0FF30FEE68B
:10395000774A1268917A764A5268107804AB02224C
:1039600000F0D4F910B14FF0FF30F0E69DF81100EF
:103970009DF8101040EA012B0C209BFBF0F0C6B222
:103980000020A86068602860A060606020608246B7
:1039900065E0674A1268D17A654A5268107804ABCC
:1039A0000C2200F0B3F910B14FF0FF30CFE69DF8D4
:1039B00011009DF8101040EA012000B2ADF8080097
:1039C0009DF813009DF8121040EA012000B2ADF8F6
:1039D0000A009DF815009DF8141040EA012000B27D
:1039E000ADF80C00BDF90810206808442060BDF94E
:1039F0000A10606808446060BDF90C10A0680844B3
:103A0000A0609DF817009DF8161040EA012000B252
:103A1000ADF800009DF819009DF8181040EA01204B
:103A200000B2ADF802009DF81B009DF81A1040EAA4
:103A3000012000B2ADF80400BDF900102868084468
:103A40002860BDF90210686808446860BDF9041078
:103A5000A8680844A8600AF1010000F0FF0AB24516
:103A600097DB3448D0F800C02868C117090441EA40
:103A700010410704624600233846FCF755FB3246E6
:103A80000023CDE90201FCF74FFB28602948D0F85C
:103A900000C06868C117090441EA10410704624682
:103AA00000233846FCF740FB32460023CDE90201F3
:103AB000FCF73AFB68601F48D0F800C0A868C1173F
:103AC000090441EA10410704624600233846FCF726
:103AD0002BFB32460023CDE90201FCF725FBA86051
:103AE0001448D0F804C02068C117090441EA104105
:103AF0000704624600233846FCF716FB32460023D3
:103B0000CDE90201FCF710FB20600A48D0F804C0A0
:103B10006068C117090441EA1041070462460023A6
:103B20003846FCF701FB32460023CDE9020103E0F1
:103B30005401002070560008FCF7F6FA6060114846
:103B4000D0F804C0A068C117090441EA1041070475
:103B5000624600233846FCF7E7FA32460023CDE9F7
:103B60000201FCF7E1FAA060A068002804DDA0686B
:103B7000A0F58030A06003E0A06800F58030A06070
:103B80000020E4E57056000838B50446164951F89F
:103B900024000121FDF714F9144951F824000121F2
:103BA000FDF716FC124830F8240080B2ADF8000092
:103BB00018208DF8030003208DF802000D4951F8FC
:103BC00024006946FDF770F80B4830F8240080B2F5
:103BD000ADF8000004208DF80300064951F82400D8
:103BE0006946FDF761F838BDC40100206C00002073
:103BF0008000002058000020940000202DE9FC5F88
:103C000006460F4600253D494968087801AB032266
:103C10000D2100F07BF810B10720BDE8FC9F9DF856
:103C2000040000F01F008DF804009DF8050000F06E
:103C30001F008DF805009DF8060000F01F008DF8AC
:103C40000600002456E056F8240057F82410A0EB94
:103C5000010BBBF1000F01DB594601E0CBF1000184
:103C60000846FCF792FC4FF08F410090FCF736FBC2
:103C7000814601A8005D68B321490868FCF78EFC05
:103C8000834659461F48FCF729FB804604E01E493D
:103C90004046FCF7F1FA804601A8005D401EC0B224
:103CA00001A908550028F2D141464846FCF716FB09
:103CB00083464FF07E51FCF7D9FA82462AF0004B3A
:103CC0000F4881695846FCF7F3FC12D20120A0404E
:103CD00005430EE00A4801694846FCF7DFFC05D3BE
:103CE000074841694846FCF7E3FC02D20120A040A6
:103CF0000543641C032CA6DB28468EE754010020F4
:103D00007056000800B04C4554E3853F2DE9F04162
:103D100006460F4614461D46FDF78CF910B90120E2
:103D2000BDE8F0817106080EFDF752F9FDF7DAF9EA
:103D300018B9FDF7B3F90120F2E73846FDF748F965
:103D4000FDF7D0F9FDF776F9012101EB4601C8B284
:103D5000FDF73EF9FDF7C6F90DE0012C04D1002076
:103D6000FDF7FEF8287003E00120FDF7F9F8287050
:103D70006D1C601EC4B2002CEFD1FDF78FF900203E
:103D8000CEE72DE9F04105460E4617469846FDF769
:103D900051F910B90120BDE8F0816906080EFDF760
:103DA00017F9FDF79FF918B9FDF778F90120F2E747
:103DB0003046FDF70DF9FDF795F900240BE018F8F2
:103DC0000400FDF705F9FDF78DF918B9FDF766F95F
:103DD0000020E0E7641CBC42F1DBFDF75FF9002046
:103DE000D9E770B50546284600F00FF80446E81CF0
:103DF00000F00BF844EAC00084B2A81D00F005F8FA
:103E000044EA801084B2204670BD014691F900203A
:103E1000002A01DD00201EE091F90020002A01DACD
:103E2000042018E091F90120002A01DD012012E0B0
:103E300091F90120002A01DA05200CE091F9022015
:103E4000002A01DD022006E091F90220002A01DAB1
:103E5000062000E00720704788B04FF4A060FDF70F
:103E60008BFA01210846FDF7B3FA01217B48FCF7E4
:103E7000A7FFFEF72BFD01F0F5F800F01FF94FF456
:103E8000E131012001F02CFB4FF4E131022001F07F
:103E900027FBE1E00020039004900590704A069013
:103EA000CDE900206F4B02466F490290022001F0DD
:103EB00065FA00282BD06D480068002809DA6948A7
:103EC00000686421484366490968401A67490860E8
:103ED00008E06348006863490968642202FB010046
:103EE0006249086000F00AFA61480068FCF7A7FB25
:103EF000054600225F4BFCF7D6FA0746FCF780FB2D
:103F000004462246594801685BA0FDF7F7FF0020F0
:103F1000604A614BCDE90420039306905F486049F5
:103F2000604A614BCDE900210290604A604901205E
:103F300001F024FA0028ACD05D480068012806D1C1
:103F40005A48008881B25B48FDF719FE84E0584862
:103F50000068022806D15548008881B25548FDF70F
:103F600010FE79E052480068032806D14F480088C7
:103F700081B25148FDF703FE6EE04D480068042809
:103F800006D14A48008881B24B48FDF7FAFD63E04C
:103F900047480068052806D14448008881B2464851
:103FA000FDF7F1FD58E042480068062806D13F4879
:103FB000008881B24048FDF7E8FD4DE03A480068CE
:103FC00018B940F2DC50384908603648006818B922
:103FD00040F2DC50334908603148006818B940F2BB
:103FE000DC502F4908602D48006818B940F2DC50B9
:103FF0002A4908602848006818B940F2DC50264970
:1040000008602448006818B940F2DC502149086073
:104010002548008881B22748FDF7B1FD2148008876
:1040200081B22448FDF7ADFD1D48008881B22248C9
:10403000FDF7A5FD1948008881B21F48FDF7A1FDD5
:104040001548008881B21C48FDF79DFD1148008885
:1040500081B21948FDF799FD1CE70000000230000D
:1040600038010020340100203C01002030010020F4
:10407000EC000020000059406465707468203D2009
:1040800025642C207069746368203D2025640D0A26
:10409000000000002C010020280100202401002045
:1040A000200100201C010020180100201401002024
:1040B00010010020000400400008004010B5FCF78B
:1040C00013FFFDF7D0F8C820FEF722FCFCF764FDD3
:1040D000C820FEF71DFC10BD70B50446002624F074
:1040E0000104184890F8240008B1002070BD15485C
:1040F000807A10B94FF0FF30F8E71248057C807ADB
:104100002040104908740846007CA04202D04FF0BD
:10411000FF3600E0002614B90A48007D18B10120DE
:1041200000F0EEFF02E0002000F0EAFF3CB100F0FA
:1041300035FB20B1034805744FF0FF30D6E7304619
:10414000D4E700005401002001461148407A30B104
:10415000012807D0022808D003280CD108E002204B
:1041600008700BE00420087008E00820087005E0E3
:104170001020087002E04FF0FF30704700BF044885
:10418000C07C18B108784006000E08700020F4E7E3
:104190005401002001461348407A30B1012808D06C
:1041A00002280AD0032810D10BE04FF48040088089
:1041B0000EE041F69C7008800AE04FF480500880C1
:1041C00006E04FF40060088002E04FF0FF307047D7
:1041D00000BF0448C07C10B108884010088000204F
:1041E000F5E700005401002001460248007C0870F9
:1041F000002070475401002001460F48007A30B17A
:10420000012807D0022809D003280FD10AE0FA209C
:1042100008800EE04FF4FA7008800AE04FF47A70DC
:10422000088006E04FF4FA60088002E00020088071
:1042300000BF00BF002070475401002001460E4817
:10424000007A30B1012807D0022808D003280CD109
:1042500008E00A4808600BE00948086008E00948DF
:10426000086005E00848086002E04FF0FF30704742
:1042700000BF0020FBE700005401002000000343C2
:1042800000008342333303423333834101461248F3
:10429000C07A082817D2DFE800F01704070A0D10CB
:1042A0001318BC20088013E06220088010E02A2048
:1042B00008800DE0142008800AE00A20088007E04A
:1042C0000520088004E000BF00BF0020088000BF78
:1042D00000BF00207047000054010020014606483E
:1042E00090F8240010B14FF0FF3070470248C089A9
:1042F00008800020F9E700005401002010B5FDF708
:10430000E1F8064800680649086006480068064962
:104310000860064800680649086010BD900100204A
:10432000EC00002094010020F00000209801002003
:10433000F40000201CB580208DF80000604A12684F
:10434000917C5F4A526810786B460122FFF719FD95
:1043500010B14FF0FF301CBD6420FEF7D9FA0020E9
:104360008DF80000564A1268917C554A52681078C0
:104370006B460122FFF705FD10B14FF0FF30EAE771
:104380004F4A1268917D4E4A526810786B46062259
:10439000FFF7BCFC10B14FF0FF30DCE79DF80500E3
:1043A000C007400F9DF8031001F0010140EA4100F1
:1043B0009DF8011001F0010140EA010474B1012CE3
:1043C00003D101213E48C17427E0022C03D1002112
:1043D0003B48C17421E04FF0FF30BCE7384A126817
:1043E000D178374A526810786B460122FFF78EFC6D
:1043F00010B14FF0FF30AEE79DF8000000F00F0461
:1044000014B94FF0FF30A6E7042C03D101212C484A
:10441000C17402E000212A48C174FF21284881723A
:10442000FF2027490872FF2125484172C1724FF6CB
:10443000FF71C181FF21017481740121017380F832
:104440002210002180F8231041750175163001609B
:1044500041608160163880F8241080F82510C184EE
:104460004FF4FA6000F036FC10B14FF0FF3072E705
:10447000022000F0FFFA10B14FF0FF306BE72A2066
:1044800000F0A2FC10B14FF0FF3064E7322000F0E2
:10449000DDFC10B14FF0FF305DE70020FFF71CFEA0
:1044A00010B14FF0FF3056E7002000F025FB10B1AF
:1044B0004FF0FF304FE7002000F016FD00204AE7E4
:1044C000540100202DE9F04385B005460E46904684
:1044D0009946294890F8250020B14FF0FF3005B0EB
:1044E000BDE8F08316B94FF0FF30F8E7002423E071
:1044F000281B102801DD102000E0281B87B232198C
:104500003946204600F058FD10B14FF0FF30E6E785
:1045100001AA3946204600F001F910B14FF0FF30F2
:10452000DDE730193A4601A9FBF741FE10B16FF003
:104530000100D4E7E01984B2AC42D9DB4FEA28206D
:104540008DF8000008F0FF008DF801000A4A12689B
:10455000917E094A526810786B460222FFF711FCDF
:1045600010B14FF0FF30BAE70121034880F8251061
:10457000A0F826900020B2E75401002038B5044688
:10458000282C02DD4FF0FF3038BDDCB9002000F0F0
:10459000E5FB00208DF8000007208DF801002E4A71
:1045A0001268917C2C4A526810786B460222FFF701
:1045B000E8FB10B14FF0FF30E6E700212648017517
:1045C0000020E1E7012000F0C9FB20208DF8000069
:1045D000012C06D100208DF80100052000F0F4FB2D
:1045E00017E0052C06DC01208DF80100052000F005
:1045F000EBFB0EE0142C06DC02208DF801000A20F3
:1046000000F0E2FB05E003208DF80100142000F02B
:10461000DBFB9DF80100072101EB8010C0B28DF893
:1046200001000D4A1268917C0B4A526810786B4663
:104630000222FFF7A6FB10B14FF0FF30A4E70821DC
:104640000548817200210173012101750020FFF7E7
:1046500043FD002098E7000054010020F8B504460F
:104660000F4616462C4890F8240010B94FF0FF3042
:10467000F8BD2948807A10B94FF0FF30F8E7264A94
:104680001268917A244A526810786B460222FFF72A
:104690003DFB10B14FF0FF30EAE79DF801009DF8B7
:1046A000001040EA0125A54203DA00203070401EC8
:1046B000DEE7194840684088B5EB600F17DD164A01
:1046C0001268517C144A526810786B460122FFF739
:1046D0001DFB10B14FF0FF30CAE79DF8000000F05D
:1046E000100020B100F05AF86FF00100C0E7E2B20C
:1046F000094B1B68D97A084B5B6818783B46FFF773
:1047000005FB10B14FF0FF30B2E795FBF4F0401E0F
:1047100030700020ACE7000054010020F8B50446DA
:104720000D46164616B94FF0FF30F8BD1A48807A8C
:1047300010B94FF0FF30F8E720128DF80000E0B21A
:104740008DF801009DF80100284413494968498902
:10475000884202DD4FF0FF30E7E70F4A1268117E12
:104760000D4A526810786B460222FFF70AFB10B11F
:104770004FF0FF30D9E7EAB2074B1B68597D064B73
:104780005B6818783346FFF7C1FA10B14FF0FF307D
:10479000CBE70020C9E700005401002008B56D48B0
:1047A000807A10B94FF0FF3008BD00200090694AB0
:1047B0001268D17B674A526810786B460122FFF776
:1047C000E0FA10B14FF0FF30EEE7624A126851791B
:1047D000604A526810786B460122FFF7D2FA10B196
:1047E0004FF0FF30E0E75B4A12681179594A52688E
:1047F00010786B460122FFF7C4FA10B14FF0FF307A
:10480000D2E7544890F82400002850D00C200090A3
:10481000504A126811794F4A526810786B4601224B
:10482000FFF7AFFA10B14FF0FF30BDE7C0200090A6
:104830004848807A00F0010020B19DF8000040F067
:1048400020000090434A12681179424A5268107859
:104850006B460122FFF795FA10B14FF0FF30A3E746
:104860003C48407C10B10220009001E00020009004
:10487000384A1268D17B374A526810786B46012259
:10488000FFF77FFA10B14FF0FF308DE70020009066
:10489000304A126851792F4A526810786B460122CB
:1048A000FFF76FFA002852D04FF0FF307CE704206A
:1048B0000090284A12681179264A526810786B468F
:1048C0000122FFF75EFA10B14FF0FF306CE721488C
:1048D000807C20B91F48807A00F0010010B9402088
:1048E000009001E0602000901A4A12681179194A7C
:1048F000526810786B460122FFF743FA10B14FF06F
:10490000FF3051E71348407C10B10120009001E0D6
:10491000002000900F4A1268D17B0E4A526810782E
:104920006B460122FFF72DFA10B14FF0FF303BE745
:10493000084A12685179074A52681078054B1033BB
:104940000122FFF71EFA10B14FF0FF302CE70020D4
:104950002AE70000540100202DE9F04F8DB0834676
:104960000F4602200C90424890F8240020B100200D
:1049700000F068F9012600E0002603A8FFF73CFCE0
:1049800005A8FFF7E1FB01A8FFF780FC02A8FFF7ED
:10499000A5FC374890F80AA004A8FFF725FC0024DE
:1049A00007E0002239465846FEF7B8FE00B902E09B
:1049B000641C022CF5DB00BF022C01D1002528E08D
:1049C000002407E0012206A909A8FEF7A7FE00B906
:1049D00002E0641C022CF5DB00BF022C01D1002593
:1049E00017E006A93846FDF7D5FB00F0FF0809A936
:1049F0005846FFF703F900F0FF090025B9F1000F51
:104A000001D145F00105B8F1000F01D145F00205D3
:104A100000BFFF2016490872FF2115484172C1727C
:104A20004FF6FF71C181FF21817201740121017371
:104A3000BDF80C0000F04EF99DF8140000F01AF8D3
:104A4000BDF8040000F0C0F9BDF8080000F0FEF960
:104A5000504600F049FA9DF81000FFF73DFB16B1F3
:104A6000012000F0EFF828460DB0BDE8F08F0000FF
:104A70005401002038B504461E48807A10B94FF022
:104A8000FF3038BD022C06D0042C07D0082C08D0EB
:104A9000102C0CD108E0002000900BE008200090C2
:104AA00008E01020009005E01820009002E04FF090
:104AB000FF30E6E700BF0F48407A9DF80010B0EBEA
:104AC000E10F01D10020DCE70A4A1268D179094AD6
:104AD000526810786B460122FFF753F910B14FF07E
:104AE000FF30CEE79DF80000C1100248417200205F
:104AF000C7E700005401002038B504465048807CC8
:104B0000A04201D1002038BD002C46D04C4A12688A
:104B100011794B4A526810786B460122FFF7F6F87C
:104B200010B14FF0FF30EEE79DF8000020F02000BC
:104B30000090434A12681179414A526810786B46D6
:104B40000122FFF71EF910B14FF0FF30DBE7032021
:104B5000FDF7DEFE02200090394890F8220020B1D7
:104B60009DF8000040F080000090354890F8230048
:104B700020B19DF8000040F030000090304A1268EB
:104B8000117D2F4A526810786B460122FFF7F9F821
:104B9000002851D04FF0FF30B5E7294A126811794B
:104BA000274A526810786B460122FFF7AFF810B120
:104BB0004FF0FF30A7E72248807A00F0010028B1CB
:104BC0009DF8000040F02000009004E09DF80000F7
:104BD00020F0200000901A4A12681179184A526891
:104BE00010786B460122FFF7CCF810B14FF0FF3080
:104BF00089E70320FDF78CFE114890F8220010B1E0
:104C00008020009001E0002000900D4890F82300E3
:104C100020B19DF8000040F030000090084A126872
:104C2000117D074A526810786B460122FFF7A9F8F8
:104C300010B14FF0FF3066E701488474002062E74E
:104C40005401002038B50446214890F82400A042C1
:104C500001D1002038BD24B31D4890F8250010B9BB
:104C60004FF0FF30F6E7002000F04AFA0020FFF78F
:104C700043FF1749C88C00F0E9F800200090144960
:104C8000496808786B4601222321FFF77AF8012151
:104C90000F4880F82410012000F032FAFFF77EFD63
:104CA00013E0002000F02CFA0948007C009008492D
:104CB000496808786B4601222321FFF762F800213A
:104CC000034880F82410FFF769FD0020C2E70000C8
:104CD0005401002038B504461F48807A10B94FF0BF
:104CE000FF3038BDFA2C09D0B4F5FA7F09D0B4F5FD
:104CF0007A7F09D0B4F5FA6F0CD108E0002000905B
:104D00000BE00820009008E01020009005E018203B
:104D1000009002E04FF0FF30E3E700BF0E48007A5A
:104D20009DF80010B0EBE10F01D10020D9E70A4A4D
:104D300012689179084A526810786B460122FFF791
:104D400020F810B14FF0FF30CBE79DF80000C01005
:104D5000014908720020C4E75401002038B5044618
:104D6000184890F82300A04201D1002038BD14B1AA
:104D70003020009001E0002000901248807C20B19B
:104D80009DF8000040F0020000900E4890F82200CC
:104D900020B19DF8000040F080000090094A1268A0
:104DA000117D084A526810786B460122FEF7E9FF30
:104DB00010B14FF0FF30D9E7024880F823400020BF
:104DC000D4E700005401002038B504461E48807A1C
:104DD00010B94FF0FF3038BDBC2C02DB0120009031
:104DE00015E0622C02DB0220009010E02A2C02DB8E
:104DF000032000900BE0142C02DB0420009006E05E
:104E00000A2C02DB0520009001E0062000900E48ED
:104E1000C07A9DF80010884201D10020DBE70A4AE1
:104E200012689178084A526810786B460122FEF7A2
:104E3000A8FF10B14FF0FF30CDE79DF800100248F9
:104E4000C1720020C7E700005401002038B50446B5
:104E50002448807A10B94FF0FF3038BD214890F8CF
:104E6000240010B14FF0FF30F7E71E48007D50B12D
:104E700034B1282C04DCE0B2FFF780FB0020ECE723
:104E80000020FFF77BFB042C01DA042404E0B4F5D6
:104E90007A7F01DD4FF47A744FF47A7090FBF4F06E
:104EA000401EC0B200900F4A126851780D4A5268F5
:104EB00010786B460122FEF764FF10B14FF0FF300F
:104EC000CBE79DF80000401C4FF47A7191FBF0F0A5
:104ED00081B20448C1810146C9894810FFF774FFB7
:104EE0000020BAE75401002038B5044604F07000F1
:104EF00010B10120009005E014B10020009001E005
:104F0000402000902B4A1268917C2A4A52681078FF
:104F10006B460122FEF735FF20B100212548817242
:104F2000481E38BD9DF8000020F040012148017363
:104F30000020009004F0400020B99DF8000040F0EF
:104F40000400009004F0200020B99DF8000040F01B
:104F50000200009004F0100020B99DF8000040F01D
:104F60000100009004F0080020B99DF8000040F016
:104F7000380000900F4A1268D17C0E4A52681078AF
:104F80006B460122FEF7FDFE20B100210948817227
:104F9000481EC6E724B1082C02D00020FFF7DEFE31
:104FA00004488472002101753220FDF7B1FC002015
:104FB000B7E7000054010020F8B504460D46164638
:104FC00016B94FF0FF30F8BD1A48807A10B94FF08B
:104FD000FF30F8E720128DF80000E0B28DF80100F4
:104FE0009DF801002844134949684989884202DD37
:104FF0004FF0FF30E7E70F4A1268117E0D4A526802
:1050000010786B460222FEF7BCFE10B14FF0FF3065
:10501000D9E7EAB2074B1B68597D064B5B681878E5
:105020003346FEF7AEFE10B14FF0FF30CBE7002065
:10503000C9E70000540100207047000038B504465D
:105040000748005D8DF8000001208DF801008DF803
:1050500002008DF803006846FCF756F938BD0000E1
:10506000A800002010B500F0B9F800F025F910BD37
:1050700070B588B002A905A8FFF76EFC0446032CA2
:105080003CD101A8FFF7DAF80598FBF77EFA06464F
:105090000199FBF7F1F80546FBF785FA05900698AC
:1050A000FBF773FA06460199FBF7E6F80546FBF7AE
:1050B0007AFA06900798FBF768FA06460199FBF71B
:1050C000DBF80546FBF76FFA079005A8FEF718F81E
:1050D0006846FFF75FF8BDF8001002984843029059
:1050E000BDF80010039848430390BDF800100498E1
:1050F0004843049002A8FDF733FF00BF08B070BD1D
:1051000038B50446214890F82400C0B114B10220FB
:10511000009001E0002000901C4A1268D17B1B4ADD
:10512000526810786B460122FEF72BFE10B14FF04B
:10513000FF3038BD9DF800101448417423E0134837
:10514000807A10B94FF0FF30F3E724B10F48407C6C
:1051500008B10020EDE714B10120009001E000202B
:1051600000900A4A1268D17B084A526810786B4650
:105170000122FEF706FE10B14FF0FF30D9E79DF88F
:105180000010024841740020D3E7000054010020C1
:105190002DE9F04106460F46FBF750FC041E0D4674
:1051A00018BF0120284320F00040C0F17F6000F1CB
:1051B000E040C00F0ED0301C18BF0120384320F053
:1051C0000040C0F17F6000F1E040C00F04BF01204B
:1051D000FCF730FF20462946BDE8F08100B589B0D4
:1051E00001210220FCF7E4F801210C20FCF7F0F883
:1051F00018208DF80700C020ADF8040003208DF8BA
:10520000060001A92948FBF74FFD18208DF807007B
:105210000320ADF804008DF8060001A92448FBF72F
:1052200043FD44F61F60ADF81C004720ADF81800A0
:105230000020ADF81A00ADF81E0006A91D48FCF7C5
:10524000A7FC6020ADF808000120ADF80A0000209E
:10525000ADF80E00ADF8100002A91648FCF734FBBB
:1052600002A91448FCF786FB02A91248FCF7E2FBEE
:1052700002A91048FCF738FC08210E48FCF770FB27
:1052800008210C48FCF7C8FB08210A48FCF722FC5F
:1052900008210848FCF766FC01210648FCF7FCFAE7
:1052A00001210448FCF704FB09B000BD00080140DF
:1052B000000C01400004004000B589B00121042029
:1052C000FCF776F801210820FCF782F818208DF809
:1052D00007004FF47070ADF8040003208DF806004D
:1052E00001A92448FBF7E0FC44F61F60ADF81C0060
:1052F0004720ADF818000020ADF81A00ADF81E00E8
:1053000006A91D48FCF744FC6020ADF80800012008
:10531000ADF80A000020ADF80E00ADF8100002A9AB
:105320001548FCF7D1FA02A91348FCF723FB02A9A0
:105330001148FCF77FFB02A90F48FCF7D5FB0821B9
:105340000D48FCF70DFB08210B48FCF765FB082115
:105350000948FCF7BFFB08210748FCF703FC0121C3
:105360000548FCF799FA01210348FCF7A1FA09B0B6
:1053700000BD0000000C0140000800402DE9F04F86
:105380008DB004460F4690469946DDE916AB2821BC
:1053900003A8FAF701FF0026002500200290012053
:1053A0000190601E4C4951F8200000287ED000BFBB
:1053B0004AE0601E00EBC00101EB0010474901EB21
:1053C0004000405D392823DC601E00EBC00101EB8A
:1053D0000010424901EB4000405D302818DB03A873
:1053E00050F8260000EB80004200601E00EBC00178
:1053F00001EB0010394901EB4000405D3038019964
:1054000000FB012003A941F82600012002901AE0C8
:10541000601E00EBC00101EB0010304901EB4000C1
:10542000405D2D2803D14FF0FF3001900BE00120AB
:1054300001900298012803D1701CC6B2002002908E
:105440000A2E00D106E06D1C601E234951F8200091
:10545000A842AEDC00BF0FB103983860B8F1000F6E
:1054600002D00498C8F80000B9F1000F02D00598E6
:10547000C9F80000BAF1000F02D00698CAF800007F
:10548000BBF1000F02D00798CBF80000189810B1BC
:10549000089918980160199810B109991998016034
:1054A0001A9810B10A991A98016000E012E01B984E
:1054B00010B10B991B9801601C9810B10C991C98A5
:1054C00001600021601E044A42F8201001200DB046
:1054D000BDE8F08F0020FAE7F00B0020280B002039
:1054E0003EB504460D46601E0E4901EB8000322297
:1054F000611E01EBC10303EB01110B4B03EB4101F7
:10550000CDE900120290601E00EB800101EBC000AB
:10551000064901EB800234232946204600F008F8B2
:105520003EBD0000F00B0020280B0020480A0020A0
:105530002DE9F04704460D4616461F46DDE9099A57
:10554000DDF82080641E204840F824501F4840F8B1
:1055500024601F4840F824801E4840F824701E48EC
:1055600040F824901D4840F824A02046FFF766FD2F
:105570001B4850F8240010B12046FDF753FA194893
:1055800050F8240010B12046FDF70EFA204600F036
:105590002DF82046FEF7F8FA134951F824000122AD
:1055A00040F22441FCF7B0FB0F4951F824000122DE
:1055B000C021FCF769FB0C4951F824000121FCF7DC
:1055C00057FBBDE8F0870000C0050020D40500208F
:1055D000FC050020E805002010060020240600201D
:1055E000C4000020D80000201C0000201FB5044685
:1055F000114951F824000121FBF7EAFE0F4951F847
:1056000024000121FBF7D4FE0D4850F8240000903F
:105610000C20ADF80A000020ADF80400ADF8080039
:10562000ADF80600ADF80C00064951F824006946B3
:10563000FCF790FB1FBD000044000020300000205C
:10564000C00500201C000020680000047600540102
:10565000F7FD000175191A0C6A231B1C1F207274B8
:10566000433B4138393A6B6C376F06246D6E7000DE
:10567000830000000008000000010018320005004F
:10568000000020410000D242295C0F3E9A99993EC9
:105690003333733F295C0F3E00007000000000248C
:1056A000000000020003000000650054FFEF00004E
:1056B000FA80000B12820001030C30C30E8C8CE9BF
:1056C00014D5400213710F8E3883F8833000F883AD
:1056D000258EF8833000F883FFFFFFFF0FFEA9D669
:1056E000240004001A8279A10000003CFFFF0000A2
:1056F0000010000038836FA2003E0330400000001D
:1057000002CAE3093E800000200000000000000003
:105710004000000060000000000C0000000C186E4B
:10572000000006920A16C0DFFFFF0256FD8CD377F9
:10573000FFE1C496E0C5BEAA00000000FFFF0B2BEE
:1057400000001657000003594000000000001DFA39
:1057500000026C1D000000003FFFDFEB003EB3B60F
:10576000000D227800002F3C00000000001942B517
:10577000000039A20000B365D90E9FC91DCF4C347B
:1057800030000000500000003BB67AE800640000E2
:1057900000C8000000000000100000001000FA9295
:1057A0001000225E000D229F000100000032000068
:1057B000FF46000063D400001000000004D6000083
:1057C00004CC000004CC0000000010720000004077
:1057D00000000000000000000006000200050007B5
:1057E0000000000000640000000000000000000550
:1057F0000005006400200000000000000000000020
:10580000000040000000030000000032F898000093
:10581000FF650000830F0000FF9BFC0000000000FC
:105820000000000000000000000000000000000078
:105830000000000000000000000000000000000068
:105840000000000000001000400000000000000602
:105850000000B26A000200000001FB830068000043
:1058600000D9FC007CF1FF8300000000006500000F
:10587000006403E800640028000000250000000028
:1058800016A000000000100000001000002F000013
:10589000000001F40000100000280000FFFF458117
:1058A000FFFFFA7200000000000000000044000545
:1058B0000005BAC6004778A2000000010000000001
:1058C00000000600000000140000254D002F706D40
:1058D000000005AE000C02D0000000000000000037
:1058E0000000000000000000001B0000000000009D
:1058F000000000000000000000640000000800003C
:105900000000000000000000000000000000000097
:105910000000000000000000000000000000000087
:105920000000000000000000000000000000000077
:105930000000000000000000000000000000000067
:105940000000000000000000000000000000000057
:105950000000000000000000001B0000000000002C
:1059600000000000000E000E00000AC70004000046
:1059700000000032FFFFFF9C00000B2B0000000224
:105980000000000100000064FFE5000000000000CE
:105990000000000000000000000000010000000006
:1059A00000010000000000000001800000018000F4
:1059B00000018000002426D3000000000000000049
:1059C000000600100096003C0000000000000000EF
:1059D00000000000000000000C0A4E68CDCF7709DF
:1059E00050166759C619CE82000000000000000062
:1059F00000000000000000000000000000000000A7
:105A000017D7840003000000000000000000000021
:105A1000C7938F9D1E1B1C19000000000000000092
:105A20000000000000000000000000000000000076
:105A3000020318850000400000000003000000037E
:105A40000000000000000000400000000000000016
:105A50000000000000000000000000000000000046
:105A60000000000000000000000000000000000036
:105A7000000000000000000000000000677DDF7EE5
:105A800072902E554CF6E6880000000000000000E1
:105A90000000000000000000D8DCB4B8B0D8B9ABFA
:105AA000F3F8FAB3B7BB8E9EAEF132F51BF1B4B882
:105AB000B08097F1A9DFDFDFAADFDFDFF2AAC5CD73
:105AC000C7A90CC92C97F1A989264666B28999A95C
:105AD0002D557DB0B08AA896365676F1BAA3B4B2E9
