:020000040800F2
:10000000880F002005010008F10B0008E90B00082B
:10001000ED0B000827090008FD150008000000008E
:10002000000000000000000000000000250E000895
:100030008B09000800000000ED0C0008390F0008D3
:100040001F0100081F0100081F0100081F01000810
:100050001F0100081F0100088D090008BD090008E4
:10006000D5090008ED090008050A00081F0100086D
:100070001F0100081F0100081F0100081F010008E0
:100080001F0100081F0100081F0100081F010008D0
:100090001F0100081F0100081F0100081D0A0008B9
:1000A0001F0100081F0100081F0100081F010008B0
:1000B0001F0100081F0100081F0100081F010008A0
:1000C0001F0100081F0100081F0100081F01000890
:1000D0001F01000839130008431300084D130008DE
:1000E000A50900081F0100081F010008DFF810D053
:1000F00000F0CCFB0048004791200008AFF30080DF
:10010000880F00200648804706480047FEE7FEE7C4
:10011000FEE7FEE7FEE7FEE7FEE7FEE7FEE7FEE7B7
:100120003D0F0008ED000008D2B201E000F8012BFD
:10013000491EFBD270470022F6E710B513460A4667
:1001400004461946FFF7F0FF204610BDF0B480EAE0
:100150000102D40F4200B2EB410F02D20246084620
:1001600011464A0042D0C30DDDB2C1F3C752AD1AE9
:10017000202D35DAC1F3160141F4000204B15242D8
:10018000C5F1200602FA06F12A411044B3EBD05F14
:1001900023D0C4B1012DA0EBC35009DCF0BC4FF05B
:1001A000004202EAC352DBB200F5000000F044BA9C
:1001B000400000F1807000EBC350A0F1807040EA75
:1001C000D170490009E0490841EAC071A0EBC35071
:1001D00000F50000400800EBC350F0BC00F023BA6B
:1001E0006142012202EB4101001BF6E7F0BC7047BF
:1001F00081F00041AAE780F00040A7E780EA010211
:1002000010B502F00043400022D04A001FD0010E7A
:1002100001EB1261C0F35600C2F3560240F4000035
:1002200042F40002A0FB022000047F39140400D035
:10023000401C50EA124001D44000491EC2B20C06D4
:1002400004EBD010401C4008802A02D003E00020BC
:1002500010BD20F00100002900DA0020184310BD75
:100260002DE9FE4F804681EA0300C00F0C46009046
:1002700021F0004123F00045B8EB0200A94105D26E
:100280004046214690461C460B46024623F000405D
:10029000104347D0270DC7F30A00C3F30A51029059
:1002A000401A019040286BDAC3F3130040F4801B1E
:1002B0000098924620B10023D2EB030A63EB0B0BAC
:1002C00001985946C0F14002504600F08BF90646AD
:1002D0000D4650465946019A00F093F910EB08007C
:1002E0006141002487EA115284EAE7731A4340D03F
:1002F000009A62B3019A012A4FEA075215DC001BEB
:1003000061EB02014FF0004202EA0752CDE90042E0
:10031000001C41F5801132462B4600F0CAF903B0AB
:10032000BDE8F08F40462146F9E7001B61EB020172
:10033000001C41F5801300185B412018A2F500173E
:1003400047EB030140EAD570B6196D4111E06D0825
:100350004FEA360645EAC0754FEA0752001B61EBCB
:100360000201001C41F5801149084FEA30000019D4
:10037000514132462B4603B0BDE8F04F00F08AB938
:100380000098012240000023D0EB020263EBE073EF
:10039000009821464FEAE074B8EB000061EB0401DD
:1003A000E9E783F000435BE781F0004158E72DE97E
:1003B000FE4F81EA030404F0004421F00041009460
:1003C0004FF0000B23F0004350EA01045ED052EAE4
:1003D00003045BD0C3F30A54C1F30A552C44A4F2BE
:1003E000F3340194A0FB0254C1F3130141F48011D2
:1003F000C3F3130343F4801301FB024400FB034ED9
:10040000840A970A44EA815447EA8357A4FB0768A1
:1004100002958D0A05FB07854FEA932C04FB0C54CB
:100420002705029D4FEA065847EA1637B5EB08053F
:100430006EEB070C870E920E47EA811742EA831291
:10044000A7FB0201B6EB0B0164EB00042B0D43EAA2
:100450000C335E1844EB1C50DA465146E7FB0201B0
:10046000C5F313044FEA0B3343EA14534FEA043243
:10047000019C43EA0603A4F10C040294009CCDE91C
:1004800000B400F016F903B0BDE8F08F002001467B
:10049000F9E7C10F80EAE0700844CA0796230021FB
:1004A00000F0CAB80EB5C10F80EAE0700844CA0770
:1004B000002140F233438DE80E000A460B4600F05F
:1004C000F8F803B000BD00F0004220F00040C10D7C
:1004D000C0F3160040F400007F2901DA00207047C5
:1004E000962903DCC1F19601C84001E096398840A5
:1004F000002AF4D04042704700F0004230F0004043
:100500000AD0C10D01F56071C0F3160042EA015135
:10051000C20840071143704700200146704701F0B0
:10052000004330B421F0004150EA010206D00A0D28
:10053000A2F56072C1F31301002A02DC30BC002076
:100540007047440F44EAC104C100E01830BC00EB1E
:10055000C25000F068B830B50B460146002020229A
:10056000012409E021FA02F59D4205D303FA02F5C0
:10057000491B04FA02F52844151EA2F10102F1DC20
:1005800030BD2DE9F05F0546002092469B46884627
:100590000646814640241BE02846414647462246FF
:1005A00000F086F953465A46C01A914110D31146BD
:1005B0001846224600F016F82D1A67EB01084F4640
:1005C00022460120002100F00DF817EB00094E41F2
:1005D000201EA4F10104DFDC484631462A4643468A
:1005E000BDE8F09F202A04DB203A00FA02F1002047
:1005F00070479140C2F1200320FA03F31943904061
:100600007047202A06DBCB17203A41FA02F043EA72
:10061000E07306E041FA02F3D040C2F120029140BB
:100620000843194670470029A8BF7047401C49007D
:1006300008BF20F00100704710B4B0FA80FC00FA47
:100640000CF050EA010404BF10BC704749B1CCF172
:10065000200421FA04F411FA0CF118BF01212143FE
:100660000843A3EB0C01CB1D4FEA00614FEA1020B9
:1006700042BF002010BC704700EBC350104400295B
:10068000A4BF10BC7047401C490008BF20F0010007
:1006900010BC704710B5141E73F1000408DA401C3A
:1006A00041F1000192185B411A4301D120F0010091
:1006B00010BD2DE9F04D92469B4611B1B1FA81F281
:1006C00002E0B0FA80F220329046FFF78BFF04463A
:1006D0000F4640EA0A0041EA0B0153465A460843D6
:1006E00013D0114653EA010019D0C8F14002504618
:1006F00000F0DEF805460E46504659464246FFF7E2
:1007000071FF084305D0012004E020463946BDE8CA
:10071000F08D0020054346EAE0762C4337430A98E3
:100720006305E40AA0EB08000022FD0A44EA4754EE
:100730000A3002D500200146E9E701051019694198
:10074000DDE9084500196941BDE8F04DA2E72DE952
:10075000F04D81EA030404F0004B21F000451446FB
:100760004FF0000A23F0004150EA050220D054EA7D
:1007700001021DD0C5F30A570246C5F31303C1F3A6
:100780001300C1F30A5640F4801543F48013A7EB1D
:100790000608101BD64608F2FD3873EB050002D39D
:1007A00008F1010801E092185B41B8F1000F03DA8B
:1007B00000200146BDE8F08D00204FF48011064670
:1007C00084460EE0171B73EB050705D3121B63EB82
:1007D000050306434CEA010C49084FEA3000921821
:1007E0005B4150EA0107EDD152EA030012D082EAE0
:1007F000040083EA0501084305D0101BAB4106D273
:100800000122002306E000224FF0004302E06FF0D7
:10081000010253101AEB06004CEB085110EB0A00D2
:1008200041EB0B01BDE8F04DFFF734BFC1F30A52B5
:10083000C1F3130140F2FF3341F480119A4202DA0E
:1008400000200146704740F233439A42A2F23342FD
:1008500002DC524200F02CB8FFF7C4BE30B5041ED3
:1008600071F1000404DB4FF00044404264EB0101ED
:10087000141E73F1000405DB1C464FF00043524286
:1008800063EB0403994208BF904230BD064C074D0C
:1008900006E0E06840F0010394E807009847103450
:1008A000AC42F6D3FFF726FC342800085428000891
:1008B000202A04DB203A21FA02F00021704721FAB5
:1008C00002F3D040C2F1200291400843194670471C
:1008D00070B58C1810F8015B15F0070301D110F802
:1008E000013B2A1106D110F8012B03E010F8016B2F
:1008F00001F8016B5B1EF9D12B0705D40023521EB2
:100900000DD401F8013BFAE710F8013BCB1A921C19
:1009100003E013F8015B01F8015B521EF9D5A14217
:10092000D8D3002070BD00BFFEE721B1026842F0BD
:100930000102026004E002684FF6FE731A40026092
:1009400070470146486880B2704710B500220268BF
:1009500047F6F0739A430C6A8B6823430C69234370
:100960004C6923438C692343CC6923434C6A23435A
:100970008C6A23431A430260CB6843600B68836030
:100980004B68C36010BD41607047704710B50348A5
:1009900000F050F802480068804710BDFFFF0F00CC
:1009A0001800002010B5034800F044F80248006821
:1009B000804710BDFFFF0F001800002010B503484E
:1009C00000F038F802480068804710BDFFFF0F00B4
:1009D0001800002010B5034800F02CF80248006809
:1009E000804710BDFFFF0F001800002010B503481E
:1009F00000F020F802480068804710BDFFFF0F009C
:100A00001800002010B5034800F014F802480068F0
:100A1000804710BDFFFF0F001800002010B50348ED
:100A200000F008F802480068804710BDFFFF0F0083
:100A300018000020014908607047000014040140BC
:100A40002DE9F04102460025002600200023002465
:100A5000002791F803C00CF00F0591F803C00CF0CB
:100A6000100CBCF1000F03D091F802C04CEA050550
:100A700091F800C0BCF1000F31D0146800202BE0C9
:100A80004FF0010C0CFA00F3B1F800C00CEA0306B9
:100A90009E4220D183004FF00F0C0CFA03F7BC43A9
:100AA00005FA03FC4CEA040491F803C0BCF1280FDA
:100AB00006D14FF0010C0CFA00FCC2F814C00AE099
:100AC00091F803C0BCF1480F05D14FF0010C0CFAAE
:100AD00000FCC2F810C0401C0828D1D31460B1F843
:100AE00000C0BCF1FF0F34DD546800202EE000F19F
:100AF000080C4FF0010808FA0CF3B1F800C00CEA3A
:100B000003069E4221D183004FF00F0C0CFA03F72D
:100B1000BC4305FA03FC4CEA040491F803C0BCF1A1
:100B2000280F05D100F1080C08FA0CF8C2F814805F
:100B300091F803C0BCF1480F07D100F1080C4FF049
:100B4000010808FA0CF8C2F81080401C0828CED31F
:100B50005460BDE8F0810000F0B50A46002300248F
:100B60000021002500F00046B6F1004F02D11D4ED5
:100B7000F16901E01B4E7168C0F3034583B200F4D4
:100B80004016B6F5401F08D121F07061154E766809
:100B900026F07066134F7E6012E000F48016B6F502
:100BA000801F06D1032606FA05F4A14341F07061C7
:100BB00006E0460D360103FA06F6B14341F07061D6
:100BC00022B1460D360103FA06F6314300F0004625
:100BD000B6F1004F02D1034EF16101E0014E7160A8
:100BE000F0BD00000000014000BFFEE700BFFEE7CF
:100BF0007047000070B5002100230F22C47804B3B1
:100C0000154C246804F4E064C4F5E064210AC1F1E1
:100C10000403CA40447804FA03F184781440214361
:100C200009010E4C0678A155047804F01F05012433
:100C3000AC4005786D11AD0005F1E025C5F8004127
:100C400009E0047804F01F050124AC40044D067847
:100C5000761145F8264070BD0CED00E000E400E0A0
:100C600080E100E002490143024A11607047000040
:100C70000000FA050CED00E02DE9F84F04460F46A0
:100C8000164639463046FFF7B3FA054629466069ED
:100C9000FFF75CFA60612846E168FFF7A9FA83462E
:100CA000A168FFF7ABFA814661696068FFF7A6FAB1
:100CB000834629462068FFF7A1FA59460090FFF7BE
:100CC00045FA82464946FFF741FA8046E5604046CC
:100CD000BDE8F88F30B5039C016083604260012C51
:100CE00003D10025C5600561456130BD7047000036
:100CF00029B1064A52690243044B5A6104E0034A8F
:100D000052698243014B5A61704700000010024053
:100D100029B1064AD2690243044BDA6104E0034A6E
:100D2000D2698243014BDA61704700000010024033
:100D300029B1064A92690243044B9A6104E0034ACE
:100D400092698243014B9A61704700000010024093
:100D500030B500210022002400232D4D6D6805F0E0
:100D60000C0121B1042905D0082923D105E0294D22
:100D7000056022E0274D05601FE0254D6D6805F4F4
:100D80007012234D6D6805F48034022505EB924204
:100D90001CB9214D554305600BE01D4D6D6805F4F0
:100DA00000351DB11C4D5543056002E0194D5543FA
:100DB000056002E0174D056000BF00BF144D6D686F
:100DC00005F0F0010909154D6B5C0568DD404560D3
:100DD0000F4D6D6805F4E061090A104D6B5C4568C4
:100DE000DD4085600A4D6D6805F46051C90A0B4D00
:100DF0006B5C4568DD40C560054D6D6805F440419C
:100E0000890B074D6B5CC568B5FBF3F5056130BD1B
:100E10000010024000127A0000093D00000000208E
:100E200010000020704710B500F002F810BD00005F
:100E30000CB50020019000903348006840F48030E9
:100E40003149086000BF3048006800F4003000906D
:100E50000198401C0190009818B90198B0F5A06F56
:100E6000F1D12948006800F4003010B10120009051
:100E700001E0002000900098012843D12348006839
:100E800040F01000214908600846006820F0030087
:100E900008600846006840F0020008601A48406890
:100EA000194948600846406848600846406840F470
:100EB000806048600846406820F47C10486008461E
:100EC000406840F4E81048600846006840F08070D0
:100ED000086000BF0C48006800F000700028F9D0DE
:100EE0000948406820F00300074948600846406808
:100EF00040F00200486000BF0348406800F00C006A
:100F00000828F9D10CBD000000100240002002406A
:100F1000042808D14FF0E021096941F004014FF0A5
:100F2000E022116107E04FF0E021096921F004019E
:100F30004FF0E022116170477047000010B5134870
:100F4000006840F0010011490860084640681049F7
:100F500008400E494860084600680E4908400B49A1
:100F600008600846006820F4802008600846406851
:100F700020F4FE0048604FF41F008860FFF753FF25
:100F80004FF000600449086010BD000000100240EE
:100F90000000FFF8FFFFF6FE08ED00E021B1028837
:100FA00042F08002028004E002884FF67F731A400C
:100FB0000280704721B1028842F00102028004E001
:100FC00002884FF6FE731A400280704770B5002405
:100FD00000220023058C4FF6FE7635400584028CF6
:100FE0008388048B4FF68F752C40B51E2C400D88DE
:100FF0002C43751E2A400D892A434D882A43144DDF
:10100000A8420BD0134DA84208D0134DA84205D0DA
:10101000124DA84202D0124DA84213D14FF6F775D7
:101020002A404D892A434FF6FB752A408D882A4372
:101030004FF6FF652B404FF6FF552B408D892B4314
:10104000CD892B4383800483CD888586028470BD3F
:10105000002C0140003401400040014000440140A8
:10106000004801400A460021018B4FF6F7731940F2
:10107000114301837047000070B500240022002353
:10108000058C4FF6EF7635400584028C8388048BFF
:1010900048F6FF752C404FF6FF452C400D884FF663
:1010A000FF7606EA05252C434FF6DF752A400D89A9
:1010B00006EA05152A434D8806EA05152A43154D0B
:1010C000A84202D0144DA8421DD14FF67F752A4088
:1010D0004D894FF6FF7606EA05152A434FF6BF7590
:1010E0002A408D8806EA05152A434FF6FF352B4026
:1010F0004FF2FF752B408D8906EA85052B43CD897C
:1011000006EA85052B4383800483CD880587028406
:1011100070BD0000002C0140003401400A4600214F
:10112000018B4FF2FF7319404FF6FF7303EA02235E
:10113000194301837047000070B50024002200238A
:10114000058C4FF6FF6635400584028C8388848BBE
:101150004FF68F752C404FF6FC752C400D882C43B4
:101160004FF6FF552A400D894FF6FF7606EA052512
:101170002A434D8806EA05252A43154DA84202D088
:10118000144DA8421DD14FF2FF752A404D894FF6EC
:10119000FF7606EA05252A434FF6FF352A408D885B
:1011A00006EA05252A434EF6FF752B404DF6FF75DE
:1011B0002B408D8906EA05152B43CD8906EA0515D6
:1011C0002B4383808483CD888587028470BD000093
:1011D000002C0140003401400A460021818B4FF66B
:1011E000F7731940114381837047000070B50022E6
:1011F00000230024058C4EF6FF7635400584038CD1
:101200008488828B48F6FF752A404FF6FF452A40B6
:101210000D884FF6FF7606EA05252A434DF6FF7541
:101220002B400D8906EA05352B434D8806EA053526
:101230002B430B4DA84202D00A4DA84208D14BF6D1
:10124000FF752C408D894FF6FF7606EA85152C43F5
:1012500084808283CD88A0F84050038470BD000054
:10126000002C0140003401400A460021818B4FF2DE
:10127000FF7319404FF6FF7303EA0223194381837A
:101280007047818670470187704781877047A0F853
:1012900040107047002202881D4B98420ED01D4B13
:1012A00098420BD0B0F1804F08D01B4B984205D02C
:1012B0001A4B984202D01A4B984204D14FF68F73C2
:1012C0001A404B881A43174B984207D0164B984246
:1012D00004D04FF6FF431A40CB881A4302808B8814
:1012E00083850B8803850A4B98420BD0094B9842A3
:1012F00008D00E4B984205D00D4B984202D00D4BB2
:10130000984201D10B7A0386012383827047000043
:10131000002C01400034014000040040000800405F
:10132000000C00400010004000140040004001404C
:10133000004401400048014010B5012000F002F9CE
:1013400010BD10B5022000F0FDF810BD10B503204F
:1013500000F0F8F810BD10B50022002340F66A1422
:10136000A14200D100BF0A1201249440A3B2DC4381
:10137000048010BD21B1828942F40052828104E0D0
:1013800082894DF6FF731A40828170471AB1838AB1
:101390000B43838202E0838A8B4383827047024639
:1013A0000020B1F5007F00D100BF13880B400BB1C6
:1013B000012000E00020704770B5024600240023A1
:1013C0000025002040F66A16B14200D100BFC1F3EB
:1013D000421501F01F03012606FA03F3012D02D185
:1013E0009689334006E0022D02D1168A334001E08F
:1013F000968A33400C12012606FA04F4168834400B
:1014000013B10CB1012000E0002070BDF0B503461F
:10141000002400260025002040F66A17B94200D1BA
:1014200000BF1846C1F3421401F01F06012707FA56
:1014300006F5012C01D10C3004E0022C01D1103052
:1014400000E014301AB107682F43076002E0076814
:10145000AF430760F0BD00002DE9F04786B00546B8
:101460000E460024A24600BFA1460027B08900B165
:1014700000BF2F462C8A4CF6FF700440F0880443CE
:101480002C82AC894EF6F3100440B08831890843B1
:10149000718908430443AC81AC8A4FF6FF40044095
:1014A000B0890443AC8201A8FFF752FC1F48874271
:1014B00002D1DDF810A001E0DDF80CA0A88900F44D
:1014C000004040B10AEBCA0000EB0A103168490045
:1014D000B0FBF1F807E00AEBCA0000EB0A10316834
:1014E0008900B0FBF1F86420B8FBF0F0040120099A
:1014F000642101FB1089A88900F4004040B132202A
:1015000000EBC900B0FBF1F000F00700044308E075
:10151000322000EB09106421B0FBF1F000F00F0065
:1015200004432C8106B0BDE8F0870000003801407C
:1015300001468888C0F308007047C1F30802828022
:101540007047000070B5044600260025641E25493A
:1015500051F8240040F22441FFF72EFF002840D02C
:10156000204951F82400FFF7E3FF1F4951F82400F8
:101570000021FFF7DAF91C4951F82400FFF7E1F9DF
:10158000C0F1C800C6B2194850F82400066000BF78
:101590000DE004EBC40000EB0410154901EBC000A2
:1015A000405D144951F824104855681C85B2B54275
:1015B00004DA114850F82400A842EAD8094951F841
:1015C000240040F22441FFF7C6FE074951F82400E9
:1015D000C821FFF7D8F9044951F824000121FFF789
:1015E000A4F970BD1C000020D80000209405002044
:1015F000480100206C0500208005002000BFFEE7A8
:101600000FB4054B10B503A9044A029800F0DAF8AC
:1016100010BC5DF814FB0000F91F00083001002029
:1016200002E008C8121F08C1002AFAD170477047AB
:10163000002001E001C1121F002AFBD17047000009
:101640002DE9FF5F82B00021DDE90430020DDDF8F5
:1016500040B0034318D044F61050A2F2FF32424388
:101660001514119801281FD0A5EB0B00401C5FEA50
:10167000000A4FF000064E4FDFF83891B046504652
:1016800015D5CAF1000413E0119801244AA30128DA
:1016900001D16FEA0B010298119AC0E90031C0E94B
:1016A000024206B0BDE8F09FCBF10000DFE7044640
:1016B0000021404A491842EB0450CDE9001012E0E5
:1016C000E00707D032463B4640464946FEF76FFEEC
:1016D0008046894632463B4610461946FEF767FE6D
:1016E00006460F466410002CEAD1DDE90401DDE96D
:1016F0000023BAF1000F06DAFEF759FE42464B46C8
:10170000FEF755FE05E0FFF722F842464B46FFF78D
:101710001EF804460E460022284BFFF79FF803D818
:101720004FF0FF30014607E00022254B20463146AE
:10173000FEF796FDFFF77AF8102409E0002C0ADB8B
:101740000A220023FEF71DFF039B30321A55641E48
:1017500050EA0102F2D1641C039AC4F1110314444B
:10176000119A012A03D0012208430DD10AE008434F
:1017700004D000204FF0110B119072E7A3EB0B0582
:101780006D1E0DE05B4504DD4FF0000205F1010523
:1017900004E003DA4FF00002A5F10105002AECD0C5
:1017A00002981199C0E90231C0E9004579E70000CB
:1017B000000014400000F03F300000000000F04343
:1017C0000000E03F2DE9FF4F95B09A468846064657
:1017D0000025EEE1252877D100242746F94A01218A
:1017E000039400E0044316F8013F203B01FA03F0A4
:1017F0001042F7D130782A2811D06FF02F033078BB
:10180000A0F13002092A16D8039A44F0020402EB30
:10181000820203EB42021044761C0390EFE758F873
:10182000042B0392002A03DA504244F4005403903C
:1018300044F00204761C30782E2816D116F8010FD9
:1018400044F004042A280DD06FF02F023078A0F164
:101850003003092B09D807EB870302EB4303C718B2
:10186000761CF3E758F8047B761C30786C280FD090
:1018700006DC4C2817D068280DD06A2814D104E063
:10188000742810D07A280FD10DE044F400140AE037
:1018900044F4801401E044F440147278824202D18E
:1018A00004F58014761C761C307866280BD013DC87
:1018B000582877D009DC002875D04528F6D046286E
:1018C000F4D047281AD193E118E0632835D0642872
:1018D00079D0652812D18BE1702873D008DC672895
:1018E000F1D069286FD06E280DD06F2806D1ACE0FA
:1018F00073282CD0752874D0782853D05246179965
:1019000090476D1C54E1C4F30250022809D003280B
:101910000DD0D8F8001004280DD00D6008F104088F
:1019200046E1D8F80010EA17C1E90052F6E7D8F806
:1019300000100D80F2E70D70F0E718F8041B8DF829
:10194000001000208DF80100EB46012003E058F85C
:1019500004BB4FF0FF3061074FF0000102D40DE0EF
:1019600009F101018946B9420FDA8145F8DB1BF81C
:1019700009100029F4D108E009F1010189468142EA
:10198000FADB1BF809100029F6D103985346A0EBA7
:10199000090721463846179A00F080FA284400EBE0
:1019A000090507E044E008E10DE01BF8010B524691
:1019B00017999047B9F10109F7D2534621463846A5
:1019C000179AF2E039E00A21C4F302524FF0000BFB
:1019D0000091022A06D058F8040BC117032A09D037
:1019E0000AE023E008F1070020F00702F2E8020114
:1019F000904605E000B2C117042A01D140B2C117D8
:101A0000002906DA0A460021404261EB02012D223C
:101A100002E0220504D52B228DF80420012203E0E8
:101A2000E20701D02022F7E7914657E00A2100E0C3
:101A300010214FF0000B00910BE010214FF0000B34
:101A400044F004040827009103E008204FF0000B45
:101A50000090C4F30252022A05D058F8040B00216A
:101A6000032A08D008E008F1070020F00702F2E896
:101A70000201904603E080B2042A00D1C0B24FF0C8
:101A8000000922072AD53278702A07D0DDF800C075
:101A90008CF0100C5CEA0B0C05D00EE040228DF8A7
:101AA0000420012208E050EA010306D030238DF81B
:101AB00004308DF8052002229146009B83F0080334
:101AC00053EA0B030AD150EA010201D1620705D59E
:101AD00030228DF804204FF001097F1E3278582AF9
:101AE00004D039A20C920CAA02920BE03BA2F9E7B7
:101AF0005B46009AFEF745FD0C9B9B5C029A521ECA
:101B00000292137050EA0102F2D1029804A9081A55
:101B100000F1200B600702D524F4803400E0012797
:101B20005F4502DDA7EB0B0000E0002000EB0B019E
:101B3000009003984944401A0390E00306D45346AA
:101B40002146179A039800F0A9F90544002706E0FA
:101B500001A85246C05D179990476D1C7F1C4F45E8
:101B6000F6DBE0030CD553462146179A039800F0A4
:101B700095F9054404E030205246179990476D1CB2
:101B80000099481E00900029F5DC08E002980299AF
:101B900052460078491C0291179990476D1CBBF181
:101BA0000001ABF1010BF1DC5BE100F065F90544EC
:101BB000761C307800287FF40DAE19B02846BDE8B9
:101BC000F08F0000092801003031323334353637C8
:101BD0003839616263646566000000003031323379
:101BE0003435363738394142434445460000000019
:101BF000600700D4062708F1070020F00700F0E88E
:101C00000223804603F0004C5FEA0C0001D097A04D
:101C100009E0200501D596A005E0E00701D095A0D8
:101C200001E0AFF24C001390307823F000436528B8
:101C30000CD006DC452809D046281DD047287FD186
:101C40003BE0662818D067287AD136E00021112FB2
:101C500001DB112000E0781CCDE9000104A90CA8EB
:101C6000FFF7EEFCDDE90D010C9A4FF0000B07F1D8
:101C70000109109200914EE04FF000400097CDE92D
:101C8000011004A90CA8FFF7DBFCDDE90D020C9B99
:101C90000F994FF0000B91461093009211B9791CE7
:101CA00000EB0109B7EB090003D4C0F1FF3B07F1DA
:101CB0000109A9EB0700019042E0012F00DA01279A
:101CC0000021112F01DD112000E03846CDE900018F
:101CD00004A90CA8FFF7B4FCDDE90D010C9A0091F2
:101CE0004FF0000BB946109221070FD4009A4A45D5
:101CF00003DA914601E0A9F10109B9F1010F05DD0F
:101D0000109AA9F10101515C3029F4D0B84202DAED
:101D100010F1040F03DA0121CDE9011010E00028D1
:101D200003DC8344A9EB000102E0411C494500DDCE
:101D30008946A0EB0B00401C01904FF00040029040
:101D4000200705D40198484502DB4FF0FF30019091
:101D500000208DF84B0002980DF14B07B0F1004FB9
:101D600025D002200C902B200D90029800280CDA30
:101D7000404202902D200D9007E00A210298FEF7C4
:101D8000EAFB3031029007F8011D0C99481E0C90B7
:101D90000029F2DC02980028EFD1791E0D98087016
:101DA000307800F0200040F0450007F8020D11A83F
:101DB000C01BC01D02901398007800B1012000EBF9
:101DC0000901019801EBE071029801440398401A5F
:101DD000401E0390E00306D453462146179A039809
:101DE00000F05CF805441398007818B15246179932
:101DF00090476D1CE00323D553462146179A03985C
:101E000000F04CF805441BE0BBF1000F07DB009825
:101E1000584504DD1098179910F80B0001E0179948
:101E200030205246904701980BF1010B401E05F1FE
:101E30000105019004D12E205246179990476D1C40
:101E4000B9F10001A9F10109DEDC05E017F8010B89
:101E50005246179990476D1C0299481E029000291E
:101E6000F4DC53462146179A03989EE62D000000A5
:101E70002B000000200000002DE9F0410446002561
:101E80001E461746880404D405E039462020B04792
:101E90006D1C641EF9D52846BDE8F0812DE9F0419E
:101EA000044600251E469046C80301D5302700E0B1
:101EB0002027880404D505E041463846B0476D1C0C
:101EC000641EF9D52846BDE8F081000010B56FF01A
:101ED0000400FFF71DF80A4800680A49B0FBF1F05A
:101EE000094908700846007800EB4001C1EBC010BA
:101EF0004FF6FF7101EAC0000449088010BD0000E0
:101F00001C01002000127A0014000020160000209E
:101F100010B58CB00446194951F824000121FEF790
:101F2000E7FE04EBC40000EB0410154901EBC00010
:101F30000290144850F82400001D019000200390E6
:101F4000C820049000200890802006900020079070
:101F5000059009904FF400500A9000200B900A4918
:101F600051F8240001A9FEF7F0FC074951F82400BC
:101F70000121FEF7DAFC0CB010BD0000B00000201B
:101F8000480100201C000020D800002010B58CB0B3
:101F90000446154951F824000121FEF7A9FE134813
:101FA00050F824000290124850F82400001D0190BF
:101FB00010200390002004900890802006900020BC
:101FC0000790059009900A900B900A4951F8240057
:101FD00001A9FEF7BAFC074951F824000121FEF7D8
:101FE000A4FC0CB010BD0000B0000020440500208F
:101FF0001C000020C400002070B504460D46E1B26C
:102000000548FFF79AFA00BF40210348FFF7C7F9D8
:102010000028F9D0204670BD0038014038B504468C
:10202000164951F824000121FEF796FD144951F894
:1020300024000121FEF77CFE124830F8240080B213
:10204000ADF8000018208DF8030003208DF8020081
:102050000D4951F824006946FEF7F2FC0B4830F8B0
:10206000240080B2ADF8000004208DF8030006497A
:1020700051F824006946FEF7E3FC38BD3401002026
:102080006C000020800000205800002094000020F8
:1020900088B04FF4A060FEF7E5FD01210846FEF789
:1020A00047FE01218848FEF757FDFFF70FFF01208B
:1020B00000231A46194600908448FEF70BFE00F0F4
:1020C0007FF94FF4E131012000F000FB4FF4E131E2
:1020D000022000F0FBFAF5E0002003900490059048
:1020E0000690009001900346794A7A4902900220B6
:1020F00000F054FAC0B176480068FEF7D3F9804684
:10210000754A764BFEF753F904460D467148006850
:10211000FEF7C8F9064622462B46FEF7A1F882468E
:10212000FEF7FDF96E49086000206E4A6E4BCDE95E
:102130000420039306906D486D496E4A6E4BCDE9BD
:10214000002102906D4A6E49012000F027FA002814
:1021500057D067480068643865490860634800687C
:102160006438624908606048006864385E49086005
:1021700061480068FEF78DF9044660480068FEF784
:1021800088F905465E480068FEF783F90646002098
:1021900023462A46314600904C48FEF79BFD58489E
:1021A000016858A0FFF72CFA5448016859A0FFF7BE
:1021B00027FA514801685BA0FFF722FA4D480168F1
:1021C0005CA0FFF71DFA4A4801685EA0FFF718FA05
:1021D000464801685EA0FFF713FA434801685FA014
:1021E000FFF70EFA3F4801685FA0FFF709FA3C4885
:1021F0000068FEF781F9044622460B465EA0FFF711
:10220000FFF93C480068FEF744F90446224634488A
:1022100001682E48FEF730FD5C49086008460068FA
:10222000FEF751F9054600F0D1F884B2214658482E
:10223000FFF727F855480068FEF745F9054600F016
:10224000C5F884B221465248FFF71DF828490968AD
:10225000264A12681144244A1268881800F0B6F819
:1022600084B221464B48FFF70CF8214909681F4A00
:102270001268891A1C4A1268881A00F0A7F884B2FA
:1022800021464448FEF7FFFF19490968174A1268BA
:102290001144154A1268881A00F098F884B2214651
:1022A0003C48FEF7F2FF12490968104A1268891A81
:1022B0000D4A1268881800F089F884B22146354822
:1022C000FEF7E5FF08E7000000023000700B002079
:1022D00014010020100100207B14AE47E17A843FF6
:1022E0000C010020F8000020F4000020F000002085
:1022F000EC00002008010020040100200001002063
:10230000FC000020505F6465707468203D202564E7
:102310000D0A0000495F6465707468203D202564E3
:102320000D0A0000445F6465707468203D202564D8
:102330000D0A0000615F6465707468203D202564AB
:102340000D0A0000765F78203D2025640D0A00000C
:10235000765F79203D2025640D0A0000765F7020AD
:102360003D2025640D0A000070776D5F6D61782057
:102370003D2025640D0A00006465707468203D20CE
:10238000252E32660D0A0D0A0D0A000018010020E4
:10239000000400400008004038B504460748005DCE
:1023A0008DF8000001208DF801008DF802008DF8F5
:1023B00003006846FEF71EFC38BD0000A8000020A0
:1023C00010B500F01BF800F087F810BD01460A4870
:1023D00000684042814203DA07480068414205E054
:1023E00005480068814201DD0348016801EB810076
:1023F00000F2DC5070470000F800002000B589B002
:1024000001210220FEF784FC01210C20FEF790FC44
:1024100018208DF80700C020ADF8040003208DF8C7
:10242000060001A92948FEF70BFB18208DF80700CC
:102430000320ADF804008DF8060001A92448FEF73A
:10244000FFFA44F61F60ADF81C004720ADF81800F5
:102450000020ADF81A00ADF81E0006A91D48FEF7D1
:1024600019FF6020ADF808000120ADF80A00002037
:10247000ADF80E00ADF8100002A91648FEF7A6FD53
:1024800002A91448FEF7F8FD02A91248FEF754FE0F
:1024900002A91048FEF7AAFE08210E48FEF7E2FD49
:1024A00008210C48FEF73AFE08210A48FEF794FE80
:1024B00008210848FEF7D8FE01210648FEF76EFD08
:1024C00001210448FEF776FD09B000BD0008014077
:1024D000000C01400004004000B589B00121042037
:1024E000FEF716FC01210820FEF722FC18208DF8CB
:1024F00007004FF47070ADF8040003208DF806005B
:1025000001A92448FEF79CFA44F61F60ADF81C00B0
:102510004720ADF818000020ADF81A00ADF81E00F5
:1025200006A91D48FEF7B6FE6020ADF808000120A0
:10253000ADF80A000020ADF80E00ADF8100002A9B9
:102540001548FEF743FD02A91348FEF795FD02A9C1
:102550001148FEF7F1FD02A90F48FEF747FE0821DA
:102560000D48FEF77FFD08210B48FEF7D7FD082137
:102570000948FEF731FE08210748FEF775FE0121E4
:102580000548FEF70BFD01210348FEF713FD09B0D6
:1025900000BD0000000C0140000800402DE9F04F94
:1025A0008BB004460F4690469946DDE914AB2821CE
:1025B00001A8FDF7C0FD0026002500200090601E48
:1025C000404951F82000002879D000BF36E0601E55
:1025D00000EBC00101EB00103B4901EB4000405D06
:1025E000392820DC601E00EBC00101EB00103649E9
:1025F00001EB4000405D302815DB601E00EBC001A0
:1026000001EB0010304901EB4000405D01A951F899
:1026100026100A2202FB0100303801A941F82600E9
:102620000120009009E00098012803D1701CC6B277
:10263000002000900A2E00D102E06D1C322DC6DB76
:1026400000BF0FB101983860B8F1000F02D00298B6
:10265000C8F80000B9F1000F02D00398C9F80000D3
:10266000BAF1000F02D00498CAF80000BBF1000FC5
:1026700002D00598CBF80000169810B1069916986C
:102680000160179810B1079917980160189810B158
:10269000089918980160199810B109991998016062
:1026A0001A9810B10A991A9801600021601E054A13
:1026B00042F8201001200BB0BDE8F08FFFE70020AA
:1026C000F9E70000600B0020980A00203EB50446A0
:1026D0000D46601E0E4901EB80003222611E01EBA7
:1026E000C10303EB01110B4B03EB4101CDE90012D8
:1026F0000290601E00EB800101EBC000064901EB77
:10270000800234232946204600F008F83EBD000030
:10271000600B0020980A0020B80900202DE9F0473E
:1027200004460D4616461F46DDE9099ADDF820806D
:10273000641E204840F824501F4840F824601F4879
:1027400040F824801E4840F824701E4840F8249029
:102750001D4840F824A02046FFF71EFE1B4850F8F5
:10276000240010B12046FFF711FC194850F824004E
:1027700010B12046FFF7CCFB204600F02DF8204694
:10278000FFF74CFC134951F82400012240F2244188
:10279000FEF73CFE0F4951F824000122C021FEF74C
:1027A000F5FD0C4951F824000121FEF7E3FDBDE8D9
:1027B000F087000030050020440500206C05002053
:1027C000580500208005002094050020C40000204A
:1027D000D80000201C0000201FB50446114951F804
:1027E00024000121FEF7A4FA0F4951F82400012129
:1027F000FEF78EFA0D4850F8240000900C20ADF83A
:102800000A000020ADF80400ADF80800ADF806009D
:10281000ADF80C00064951F824006946FEF71CFE8D
:102820001FBD0000440000203000002030050020C3
:102830001C00002054280008000000203401000083
:10284000D0080008C028000834010020540E000001
:1028500030160008412D0102030404900906070800
:10286000090204060814380140124412401A4804B0
:10287000D13202A204D91E511A083C29041A0C04B0
:1028800071293229048961494B394A994F290C39F8
:10289000249929542526279A01048112441C0240B8
:1028A00080041A1C04811A580C1A6C049A30140102
:1028B000317BA24A96400901020304060708090079
:04000005080000ED02
:00000001FF
