:020000040800F2
:10000000A80F002005010008BD040008B504000881
:10001000B9040008F3010008550E000800000000B4
:100020000000000000000000000000007D06000845
:10003000570200080000000045050008910700086D
:100040001F0100081F0100081F0100081F01000810
:100050001F0100081F01000859020008890200085A
:10006000A1020008B9020008D10200081F0100081F
:100070001F0100081F0100081F0100081F010008E0
:100080001F0100081F0100081F0100081F010008D0
:100090001F0100081F0100081F010008E9020008F5
:1000A0001F0100081F0100081F0100081F010008B0
:1000B0001F0100081F0100081F0100081F010008A0
:1000C0001F0100081F0100081F0100081F01000890
:1000D0001F010008910B00089B0B0008A50B0008EE
:1000E000710200081F0100081F010008DFF810D08E
:1000F00000F042F800480047FD110008AFF300800F
:10010000A80F00200648804706480047FEE7FEE7A4
:10011000FEE7FEE7FEE7FEE7FEE7FEE7FEE7FEE7B7
:1001200095070008ED000008D2B201E000F8012BAD
:10013000491EFBD270470022F6E710B513460A4667
:1001400004461946FFF7F0FF204610BD30B50B46B8
:10015000014600202022012409E021FA02F59D42F7
:1001600005D303FA02F5491B04FA02F52844151ECB
:10017000A2F10102F1DC30BD064C074D06E0E0685B
:1001800040F0010394E8070098471034AC42F6D3DE
:10019000FFF7B0FF741800089418000870B58C18A9
:1001A00010F8015B15F0070301D110F8013B2A118B
:1001B00006D110F8012B03E010F8016B01F8016B78
:1001C0005B1EF9D12B0705D40023521E0DD401F874
:1001D000013BFAE710F8013BCB1A921C03E013F83D
:1001E000015B01F8015B521EF9D5A142D8D3002072
:1001F00070BD00BFFEE721B1026842F0010202605B
:1002000004E002684FF6FE731A4002607047014630
:10021000486880B2704710B50022026847F6F07354
:100220009A430C6A8B6823430C6923434C6923432C
:100230008C692343CC6923434C6A23438C6A234350
:100240001A430260CB6843600B6883604B68C360ED
:1002500010BD41607047704710B5034800F050F87A
:1002600002480068804710BDFFFF0F001800002003
:1002700010B5034800F044F802480068804710BDFC
:10028000FFFF0F001800002010B5034800F038F8F9
:1002900002480068804710BDFFFF0F0018000020D3
:1002A00010B5034800F02CF802480068804710BDE4
:1002B000FFFF0F001800002010B5034800F020F8E1
:1002C00002480068804710BDFFFF0F0018000020A3
:1002D00010B5034800F014F802480068804710BDCC
:1002E000FFFF0F001800002010B5034800F008F8C9
:1002F00002480068804710BDFFFF0F001800002073
:100300000149086070470000140401402DE9F041E4
:10031000024600250026002000230024002791F833
:1003200003C00CF00F0591F803C00CF0100CBCF1E9
:10033000000F03D091F802C04CEA050591F800C007
:10034000BCF1000F31D0146800202BE04FF0010CFD
:100350000CFA00F3B1F800C00CEA03069E4220D16B
:1003600083004FF00F0C0CFA03F7BC4305FA03FCB3
:100370004CEA040491F803C0BCF1280F06D14FF0F9
:10038000010C0CFA00FCC2F814C00AE091F803C09A
:10039000BCF1480F05D14FF0010C0CFA00FCC2F87B
:1003A00010C0401C0828D1D31460B1F800C0BCF1C3
:1003B000FF0F34DD546800202EE000F1080C4FF0F0
:1003C000010808FA0CF3B1F800C00CEA03069E42DB
:1003D00021D183004FF00F0C0CFA03F7BC4305FA50
:1003E00003FC4CEA040491F803C0BCF1280F05D1CA
:1003F00000F1080C08FA0CF8C2F8148091F803C058
:10040000BCF1480F07D100F1080C4FF0010808FAC1
:100410000CF8C2F81080401C0828CED35460BDE808
:10042000F0810000F0B50A460023002400210025D9
:1004300000F00046B6F1004F02D11D4EF16901E017
:100440001B4E7168C0F3034583B200F44016B6F545
:10045000401F08D121F07061154E766826F0706655
:10046000134F7E6012E000F48016B6F5801F06D1AF
:10047000032606FA05F4A14341F0706106E0460D3B
:10048000360103FA06F6B14341F0706122B1460D20
:10049000360103FA06F6314300F00046B6F1004F8C
:1004A00002D1034EF16101E0014E7160F0BD000028
:1004B0000000014000BFFEE700BFFEE770470000FC
:1004C00070B5002100230F22C47804B3154C2468B2
:1004D00004F4E064C4F5E064210AC1F10403CA40F5
:1004E000447804FA03F184781440214309010E4C46
:1004F0000678A155047804F01F050124AC40057866
:100500006D11AD0005F1E025C5F8004109E0047862
:1005100004F01F050124AC40044D0678761145F81F
:10052000264070BD0CED00E000E400E080E100E05A
:1005300002490143024A1160704700000000FA05B9
:100540000CED00E07047000029B1064A52690243F1
:10055000044B5A6104E0034A52698243014B5A61D9
:10056000704700000010024029B1064AD2690243D8
:10057000044BDA6104E0034AD2698243014BDA6139
:10058000704700000010024029B1064A92690243F8
:10059000044B9A6104E0034A92698243014B9A61D9
:1005A000704700000010024030B5002100220024F6
:1005B00000232D4D6D6805F00C0121B1042905D0F3
:1005C000082923D105E0294D056022E0274D05606B
:1005D0001FE0254D6D6805F47012234D6D6805F41C
:1005E0008034022505EB92421CB9214D554305602C
:1005F0000BE01D4D6D6805F400351DB11C4D5543D4
:10060000056002E0194D5543056002E0174D056095
:1006100000BF00BF144D6D6805F0F0010909154DCC
:100620006B5C0568DD4045600F4D6D6805F4E06169
:10063000090A104D6B5C4568DD4085600A4D6D68A8
:1006400005F46051C90A0B4D6B5C4568DD40C5601F
:10065000054D6D6805F44041890B074D6B5CC5681D
:10066000B5FBF3F5056130BD0010024000127A00C1
:1006700000093D000000002010000020704710B568
:1006800000F002F810BD00000CB5002001900090B1
:100690003348006840F480303149086000BF30487A
:1006A000006800F4003000900198401C0190009810
:1006B00018B90198B0F5A06FF1D12948006800F48D
:1006C000003010B10120009001E00020009000985F
:1006D000012843D12348006840F0100021490860F8
:1006E0000846006820F0030008600846006840F0F3
:1006F000020008601A484068194948600846406886
:1007000048600846406840F4806048600846406899
:1007100020F47C1048600846406840F4E8104860C7
:100720000846006840F08070086000BF0C48006810
:1007300000F000700028F9D00948406820F003005C
:10074000074948600846406840F00200486000BF22
:100750000348406800F00C000828F9D10CBD0000E7
:100760000010024000200240042808D14FF0E02190
:10077000096941F004014FF0E022116107E04FF0F8
:10078000E021096921F004014FF0E0221161704776
:100790007047000010B51348006840F0010011498F
:1007A000086008464068104908400E4948600846FD
:1007B00000680E4908400B4908600846006820F4AC
:1007C000802008600846406820F4FE0048604FF42E
:1007D0001F008860FFF753FF4FF000600449086076
:1007E00010BD0000001002400000FFF8FFFFF6FE01
:1007F00008ED00E021B1028842F08002028004E0AE
:1008000002884FF67F731A400280704721B1028838
:1008100042F00102028004E002884FF6FE731A40A3
:100820000280704770B5002400220023058C4FF62B
:10083000FE7635400584028C8388048B4FF68F75D5
:100840002C40B51E2C400D882C43751E2A400D8966
:100850002A434D882A43144DA8420BD0134DA84279
:1008600008D0134DA84205D0124DA84202D0124D17
:10087000A84213D14FF6F7752A404D892A434FF607
:10088000FB752A408D882A434FF6FF652B404FF6B3
:10089000FF552B408D892B43CD892B4383800483C7
:1008A000CD888586028470BD002C01400034014053
:1008B0000040014000440140004801400A46002138
:1008C000018B4FF6F7731940114301837047000005
:1008D00070B5002400220023058C4FF6EF763540DA
:1008E0000584028C8388048B48F6FF752C404FF6F4
:1008F000FF452C400D884FF6FF7606EA05252C4370
:100900004FF6DF752A400D8906EA05152A434D8802
:1009100006EA05152A43154DA84202D0144DA842F7
:100920001DD14FF67F752A404D894FF6FF7606EAB6
:1009300005152A434FF6BF752A408D8806EA05152E
:100940002A434FF6FF352B404FF2FF752B408D8920
:1009500006EA85052B43CD8906EA85052B4383806E
:100960000483CD880587028470BD0000002C0140FF
:10097000003401400A460021018B4FF2FF731940F9
:100980004FF6FF7303EA0223194301837047000007
:1009900070B5002400220023058C4FF6FF66354019
:1009A0000584028C8388848B4FF68F752C404FF61C
:1009B000FC752C400D882C434FF6FF552A400D89BD
:1009C0004FF6FF7606EA05252A434D8806EA0525F7
:1009D0002A43154DA84202D0144DA8421DD14FF212
:1009E000FF752A404D894FF6FF7606EA05252A4312
:1009F0004FF6FF352A408D8806EA05252A434EF634
:100A0000FF752B404DF6FF752B408D8906EA0515C5
:100A10002B43CD8906EA05152B4383808483CD883B
:100A20008587028470BD0000002C01400034014025
:100A30000A460021818B4FF6F773194011438183D9
:100A40007047000070B5002200230024058C4EF68C
:100A5000FF7635400584038C8488828B48F6FF75C9
:100A60002A404FF6FF452A400D884FF6FF7606EAEA
:100A700005252A434DF6FF752B400D8906EA0535FD
:100A80002B434D8806EA05352B430B4DA84202D077
:100A90000A4DA84208D14BF6FF752C408D894FF6C0
:100AA000FF7606EA85152C4384808283CD88A0F8E2
:100AB0004050038470BD0000002C01400034014010
:100AC0000A460021818B4FF2FF7319404FF6FF73E6
:100AD00003EA0223194381837047818670470187A7
:100AE000704781877047A0F8401070470022028845
:100AF0001D4B98420ED01D4B98420BD0B0F1804F49
:100B000008D01B4B984205D01A4B984202D01A4B82
:100B1000984204D14FF68F731A404B881A43174BF3
:100B2000984207D0164B984204D04FF6FF431A4024
:100B3000CB881A4302808B8883850B8803850A4BF8
:100B400098420BD0094B984208D00E4B984205D0E2
:100B50000D4B984202D00D4B984201D10B7A03867F
:100B60000123838270470000002C014000340140C3
:100B70000004004000080040000C0040001000404D
:100B80000014004000400140004401400048014082
:100B900010B5012000F002F910BD10B5022000F0E0
:100BA000FDF810BD10B5032000F0F8F810BD10B529
:100BB0000022002340F66A14A14200D100BF0A12AD
:100BC00001249440A3B2DC43048010BD21B182898A
:100BD00042F40052828104E082894DF6FF731A408C
:100BE000828170471AB1838A0B43838202E0838A31
:100BF0008B438382704702460020B1F5007F00D10D
:100C000000BF13880B400BB1012000E000207047AB
:100C100070B50246002400230025002040F66A1625
:100C2000B14200D100BFC1F3421501F01F030126FC
:100C300006FA03F3012D02D19689334006E0022D16
:100C400002D1168A334001E0968A33400C12012605
:100C500006FA04F41688344013B10CB1012000E008
:100C6000002070BDF0B503460024002600250020BA
:100C700040F66A17B94200D100BF1846C1F34214CA
:100C800001F01F06012707FA06F5012C01D10C30EF
:100C900004E0022C01D1103000E014301AB10768D2
:100CA0002F43076002E00768AF430760F0BD000014
:100CB0002DE9F04786B005460E460024A24600BF47
:100CC000A1460027B08900B100BF2F462C8A4CF600
:100CD000FF700440F08804432C82AC894EF6F31078
:100CE0000440B08831890843718908430443AC81CA
:100CF000AC8A4FF6FF400440B0890443AC8201A89F
:100D0000FFF752FC1F48874202D1DDF810A001E036
:100D1000DDF80CA0A88900F4004040B10AEBCA003D
:100D200000EB0A1031684900B0FBF1F807E00AEB6C
:100D3000CA0000EB0A1031688900B0FBF1F86420AA
:100D4000B8FBF0F004012009642101FB1089A88997
:100D500000F4004040B1322000EBC900B0FBF1F0DC
:100D600000F00700044308E0322000EB0910642182
:100D7000B0FBF1F000F00F0004432C8106B0BDE899
:100D8000F08700000038014001468888C0F3080061
:100D90007047C1F3080282807047000070B50446B6
:100DA00000260025641E254951F8240040F2244104
:100DB000FFF72EFF002840D0204951F82400FFF70C
:100DC000E3FF1F4951F824000021FFF714FA1C49E2
:100DD00051F82400FFF71BFAC0F1C800C6B2194849
:100DE00050F82400066000BF0DE004EBC40000EBE7
:100DF0000410154901EBC000405D144951F824105E
:100E00004855681C85B2B54204DA114850F82400F0
:100E1000A842EAD8094951F8240040F22441FFF7DA
:100E2000C6FE074951F82400C821FFF712FA044909
:100E300051F824000121FFF7DEF970BD1C000020ED
:100E4000D800002090050020440100206805002003
:100E50007C05002000BFFEE70FB4054B10B503A9C9
:100E6000044A029800F018F810BC5DF814FB00006A
:100E7000651100082C01002002E008C8121F08C1FB
:100E8000002AFAD170477047002001E001C1121F0B
:100E9000002AFBD1704700002DE9FF4F89B09B4627
:100EA0000446002506E025280BD05A460B999047AA
:100EB000641C6D1C20780028F5D10DB02846BDE8D3
:100EC000F08F0027B8460122474900E0074314F895
:100ED000013F203B02FA03F00842F7D120782E2888
:100EE00019D114F8010F47F004072A280ED06FF02B
:100EF0002F022078A0F1300109290CD808EB8801D5
:100F000002EB410100EB0108641CF2E70A98641C43
:100F100050F8048B0A9020780028CED0642808D09E
:100F2000692806D075281ED05A460B9990476D1C2B
:100F300058E00A994FF00A0901C90A91002802DA1B
:100F400040422D2102E0390504D52B218DF82010D7
:100F5000012103E0F90704D02021F7E78A4608AE13
:100F60000DE00021FAE70A994FF00A0901C90A9138
:100F7000F7E74946FFF7EAF8303106F8011D002887
:100F8000F7D1ADEB060000F12009780701D44FF04E
:100F90000108C84502DDA8EB090000E000208046FA
:100FA000002706E008A85A46C05D0B9990476D1CC3
:100FB0007F1C5745F6DB04E030205A460B999047DA
:100FC0006D1CB8F10001A8F10108F5DC05E016F888
:100FD000010B5A460B9990476D1CB9F10001A9F11C
:100FE0000109F4DC641C65E70928010010B56FF005
:100FF0000400FFF7B9FB0A4800680A49B0FBF1F0AA
:10100000094908700846007800EB4001C1EBC010A8
:101010004FF6FF7101EAC0000449088010BD0000CE
:101020001801002000127A00140000201600002091
:101030000146114A12884A434FF0E0235A610022C8
:101040009A611A46126942F001021A6100BF4FF01C
:10105000E022106900F001021AB100F48032002A87
:10106000F5D04FF0E022126922F001024FF0E023A8
:101070001A6100229A6170471600002010B58CB0EA
:101080000446194951F824000121FFF75DFA04EBE9
:10109000C40000EB0410154901EBC0000290144895
:1010A00050F82400001D019000200390C8200490F7
:1010B000002008908020069000200790059009905D
:1010C0004FF400500A9000200B900A4951F8240078
:1010D00001A9FFF7A0F8074951F824000121FFF703
:1010E0008AF80CB010BD0000B000002044010020C0
:1010F0001C000020D800002010B58CB00446154913
:1011000051F824000121FFF71FFA134850F824007A
:101110000290124850F82400001D01901020039006
:1011200000200490089080200690002007900590F1
:1011300009900A900B900A4951F8240001A9FFF781
:101140006AF8074951F824000121FFF754F80CB060
:1011500010BD0000B0000020400500201C00002051
:10116000C400002070B504460D46E1B20548FFF703
:1011700010FE00BF40210348FFF73DFD0028F9D0D5
:10118000204670BD0038014038B50446164951F874
:1011900024000121FFF746F9144951F824000121E8
:1011A000FFF7F2F9124830F8240080B2ADF80000E1
:1011B00018208DF8030003208DF802000D4951F826
:1011C00024006946FFF7A2F80B4830F8240080B2EB
:1011D000ADF8000004208DF80300064951F8240002
:1011E0006946FFF793F838BD300100206C000020FD
:1011F00080000020580000209400002088B04FF4A8
:10120000A060FFF795F901210846FFF7BDF901211C
:101210005E48FFF707F9FFF7E9FE00F0EFF84FF43B
:10122000E131012000F072FA4FF4E131022000F0C8
:101230006DFAA9E00020039004900590544A0690AE
:10124000CDE90020534B024601460290022000F0F7
:10125000ABF9B0B150480068002809DA4D48006881
:10126000642148434A490968401A4B49086008E02C
:101270004748006847490968642202FB0100464963
:1012800008600020454A464BCDE9042003930690B0
:1012900044484549454A464BCDE900210290454A1C
:1012A0004549012000F080F9002865D042480068D7
:1012B000012806D13F48008881B24048FFF70DFC65
:1012C0005AE03D480068022806D13A48008881B2B9
:1012D0003A48FFF704FC4FE037480068032806D17E
:1012E0003448008881B23648FFF7F7FB44E03248C3
:1012F0000068042806D12F48008881B23048FFF7E3
:10130000EEFB39E02C480068052806D12948008802
:1013100081B22B48FFF7E5FB2EE02748006806283E
:1013200006D12448008881B22548FFF7DCFB23E082
:101330001F48008881B22148FFF7CFFB1B48008877
:1013400081B21E48FFF7CBFB1748008881B21C48CA
:10135000FFF7C3FB1348008881B21948FFF7BFFBB2
:101360000F48008881B21648FFF7BBFB0B48008886
:1013700081B21348FFF7B7FB0748016811A0FFF7D8
:101380006BFD6420FFF754FE54E7000000023000BC
:1013900014010020100100200C0100200801002091
:1013A0000401002000010020FC000020F8000020C3
:1013B000F4000020F0000020EC00002000040040B9
:1013C000000800406465707468203D2025640D0AA3
:1013D0000000000038B504460748005D8DF80000A5
:1013E00001208DF801008DF802008DF80300684699
:1013F000FFF766F838BD0000A800002010B500F027
:1014000003F800F06FF810BD00B589B0012102208B
:10141000FFF7AAF801210C20FFF7B6F818208DF885
:101420000700C020ADF8040003208DF8060001A9D4
:101430002948FEF76BFF18208DF807000320ADF850
:1014400004008DF8060001A92448FEF75FFF44F66A
:101450001F60ADF81C004720ADF818000020ADF863
:101460001A00ADF81E0006A91D48FFF73FFB6020DB
:10147000ADF808000120ADF80A000020ADF80E001C
:10148000ADF8100002A91648FFF7CCF902A91448DC
:10149000FFF71EFA02A91248FFF77AFA02A91048CC
:1014A000FFF7D0FA08210E48FFF708FA08210C4888
:1014B000FFF760FA08210A48FFF7BAFA082108483E
:1014C000FFF7FEFA01210648FFF794F901210448CD
:1014D000FFF79CF909B000BD00080140000C014075
:1014E0000004004000B589B001210420FFF73CF85A
:1014F00001210820FFF748F818208DF807004FF465
:101500007070ADF8040003208DF8060001A924488E
:10151000FEF7FCFE44F61F60ADF81C004720ADF856
:1015200018000020ADF81A00ADF81E0006A91D48ED
:10153000FFF7DCFA6020ADF808000120ADF80A00E2
:101540000020ADF80E00ADF8100002A91548FFF715
:1015500069F902A91348FFF7BBF902A91148FFF77F
:1015600017FA02A90F48FFF76DFA08210D48FFF797
:10157000A5F908210B48FFF7FDF908210948FFF7F5
:1015800057FA08210748FFF79BFA01210548FFF7A2
:1015900031F901210348FFF739F909B000BD000016
:1015A000000C0140000800402DE9F04F8DB00446CA
:1015B0000F4690469946DDE916AB282103A8FEF7B1
:1015C000BAFD002600250020029001200190601E37
:1015D0004C4951F8200000287ED000BF4AE0601E30
:1015E00000EBC00101EB0010474901EB4000405DFA
:1015F000392823DC601E00EBC00101EB00104249DA
:1016000001EB4000405D302818DB03A850F82600AD
:1016100000EB80004200601E00EBC00101EB0010F7
:10162000394901EB4000405D3038019900FB012051
:1016300003A941F82600012002901AE0601E00EB89
:10164000C00101EB0010304901EB4000405D2D2846
:1016500003D14FF0FF3001900BE001200190029880
:10166000012803D1701CC6B2002002900A2E00D1BE
:1016700006E06D1C601E234951F82000A842AEDC34
:1016800000BF0FB103983860B8F1000F02D0049882
:10169000C8F80000B9F1000F02D00598C9F80000A1
:1016A000BAF1000F02D00698CAF80000BBF1000F93
:1016B00002D00798CBF80000189810B10899189834
:1016C0000160199810B10999199801601A9810B120
:1016D0000A991A98016000E012E01B9810B10B996A
:1016E0001B9801601C9810B10C991C980160002196
:1016F000601E044A42F8201001200DB0BDE8F08FB2
:101700000020FAE75C0B0020940A00203EB5044656
:101710000D46601E0E4901EB80003222611E01EB76
:10172000C10303EB01110B4B03EB4101CDE90012A7
:101730000290601E00EB800101EBC000064901EB46
:10174000800234232946204600F008F83EBD000000
:101750005C0B0020940A0020B40900202DE9F0471A
:1017600004460D4616461F46DDE9099ADDF820803D
:10177000641E204840F824501F4840F824601F4849
:1017800040F824801E4840F824701E4840F82490F9
:101790001D4840F824A02046FFF71CFE1B4850F8C7
:1017A000240010B12046FFF7A7FC194850F8240088
:1017B00010B12046FFF762FC204600F02DF82046CD
:1017C000FFF7E2FC134951F82400012240F22441C2
:1017D000FFF748FA0F4951F824000122C021FFF712
:1017E00001FA0C4951F824000121FFF7EFF9BDE897
:1017F000F08700002C05002040050020680500202F
:10180000540500207C05002090050020C400002025
:10181000D80000201C0000201FB50446114951F8D3
:1018200024000121FEF7B0FE0F4951F824000121E8
:10183000FEF79AFE0D4850F8240000900C20ADF8F9
:101840000A000020ADF80400ADF80800ADF806006D
:10185000ADF80C00064951F824006946FFF728FA54
:101860001FBD000044000020300000202C05002097
:101870001C00002094180008000000203001000027
:101880009C0100080019000830010020780E0000BB
:10189000880E0008412D0102030404900906070880
:1018A000090204060814380140124412401A480480
:1018B000D13202A204D91E511A083C29041A0C0480
:1018C00071293229048961494B394A994F290C39C8
:1018D000249929542526279A01048112441C024088
:1018E00080041A1C04811A580C1A6C049A301401D2
:1018F0002D7BA24A92400901020304060708090051
:04000005080000ED02
:00000001FF
